{
  "_format": "hh-sol-artifact-1",
  "contractName": "AgriChain",
  "sourceName": "contracts/AgriChain.sol",
  "abi": [
    {
      "anonymous": false,
      "inputs": [
        {
          "indexed": false,
          "internalType": "uint256",
          "name": "id",
          "type": "uint256"
        },
        {
          "indexed": false,
          "internalType": "string",
          "name": "name",
          "type": "string"
        },
        {
          "indexed": false,
          "internalType": "address",
          "name": "farmer",
          "type": "address"
        }
      ],
      "name": "CropAdded",
      "type": "event"
    },
    {
      "anonymous": false,
      "inputs": [
        {
          "indexed": false,
          "internalType": "uint256",
          "name": "cropId",
          "type": "uint256"
        },
        {
          "indexed": false,
          "internalType": "address",
          "name": "from",
          "type": "address"
        },
        {
          "indexed": false,
          "internalType": "address",
          "name": "to",
          "type": "address"
        }
      ],
      "name": "OwnershipTransferred",
      "type": "event"
    },
    {
      "anonymous": false,
      "inputs": [
        {
          "indexed": false,
          "internalType": "uint256",
          "name": "cropId",
          "type": "uint256"
        },
        {
          "indexed": false,
          "internalType": "uint256",
          "name": "amount",
          "type": "uint256"
        }
      ],
      "name": "PaymentCreated",
      "type": "event"
    },
    {
      "anonymous": false,
      "inputs": [
        {
          "indexed": false,
          "internalType": "uint256",
          "name": "cropId",
          "type": "uint256"
        }
      ],
      "name": "PaymentReleased",
      "type": "event"
    },
    {
      "inputs": [
        {
          "internalType": "string",
          "name": "_name",
          "type": "string"
        },
        {
          "internalType": "uint256",
          "name": "_quantity",
          "type": "uint256"
        },
        {
          "internalType": "uint256",
          "name": "_price",
          "type": "uint256"
        }
      ],
      "name": "addCrop",
      "outputs": [],
      "stateMutability": "nonpayable",
      "type": "function"
    },
    {
      "inputs": [
        {
          "internalType": "uint256",
          "name": "_cropId",
          "type": "uint256"
        },
        {
          "internalType": "address",
          "name": "_seller",
          "type": "address"
        }
      ],
      "name": "createPayment",
      "outputs": [],
      "stateMutability": "payable",
      "type": "function"
    },
    {
      "inputs": [],
      "name": "cropCount",
      "outputs": [
        {
          "internalType": "uint256",
          "name": "",
          "type": "uint256"
        }
      ],
      "stateMutability": "view",
      "type": "function"
    },
    {
      "inputs": [
        {
          "internalType": "uint256",
          "name": "",
          "type": "uint256"
        }
      ],
      "name": "crops",
      "outputs": [
        {
          "internalType": "uint256",
          "name": "id",
          "type": "uint256"
        },
        {
          "internalType": "string",
          "name": "name",
          "type": "string"
        },
        {
          "internalType": "uint256",
          "name": "quantity",
          "type": "uint256"
        },
        {
          "internalType": "uint256",
          "name": "price",
          "type": "uint256"
        },
        {
          "internalType": "address",
          "name": "farmer",
          "type": "address"
        },
        {
          "internalType": "address",
          "name": "currentOwner",
          "type": "address"
        },
        {
          "internalType": "uint256",
          "name": "timestamp",
          "type": "uint256"
        }
      ],
      "stateMutability": "view",
      "type": "function"
    },
    {
      "inputs": [
        {
          "internalType": "uint256",
          "name": "_cropId",
          "type": "uint256"
        }
      ],
      "name": "getCrop",
      "outputs": [
        {
          "components": [
            {
              "internalType": "uint256",
              "name": "id",
              "type": "uint256"
            },
            {
              "internalType": "string",
              "name": "name",
              "type": "string"
            },
            {
              "internalType": "uint256",
              "name": "quantity",
              "type": "uint256"
            },
            {
              "internalType": "uint256",
              "name": "price",
              "type": "uint256"
            },
            {
              "internalType": "address",
              "name": "farmer",
              "type": "address"
            },
            {
              "internalType": "address",
              "name": "currentOwner",
              "type": "address"
            },
            {
              "internalType": "uint256",
              "name": "timestamp",
              "type": "uint256"
            }
          ],
          "internalType": "struct AgriChain.Crop",
          "name": "",
          "type": "tuple"
        }
      ],
      "stateMutability": "view",
      "type": "function"
    },
    {
      "inputs": [
        {
          "internalType": "uint256",
          "name": "_cropId",
          "type": "uint256"
        }
      ],
      "name": "getHistory",
      "outputs": [
        {
          "components": [
            {
              "internalType": "address",
              "name": "from",
              "type": "address"
            },
            {
              "internalType": "address",
              "name": "to",
              "type": "address"
            },
            {
              "internalType": "uint256",
              "name": "timestamp",
              "type": "uint256"
            }
          ],
          "internalType": "struct AgriChain.Transfer[]",
          "name": "",
          "type": "tuple[]"
        }
      ],
      "stateMutability": "view",
      "type": "function"
    },
    {
      "inputs": [
        {
          "internalType": "uint256",
          "name": "_cropId",
          "type": "uint256"
        }
      ],
      "name": "getPayment",
      "outputs": [
        {
          "components": [
            {
              "internalType": "address",
              "name": "buyer",
              "type": "address"
            },
            {
              "internalType": "address",
              "name": "seller",
              "type": "address"
            },
            {
              "internalType": "uint256",
              "name": "amount",
              "type": "uint256"
            },
            {
              "internalType": "bool",
              "name": "released",
              "type": "bool"
            }
          ],
          "internalType": "struct AgriChain.Payment",
          "name": "",
          "type": "tuple"
        }
      ],
      "stateMutability": "view",
      "type": "function"
    },
    {
      "inputs": [
        {
          "internalType": "uint256",
          "name": "",
          "type": "uint256"
        },
        {
          "internalType": "uint256",
          "name": "",
          "type": "uint256"
        }
      ],
      "name": "history",
      "outputs": [
        {
          "internalType": "address",
          "name": "from",
          "type": "address"
        },
        {
          "internalType": "address",
          "name": "to",
          "type": "address"
        },
        {
          "internalType": "uint256",
          "name": "timestamp",
          "type": "uint256"
        }
      ],
      "stateMutability": "view",
      "type": "function"
    },
    {
      "inputs": [
        {
          "internalType": "uint256",
          "name": "",
          "type": "uint256"
        }
      ],
      "name": "payments",
      "outputs": [
        {
          "internalType": "address",
          "name": "buyer",
          "type": "address"
        },
        {
          "internalType": "address",
          "name": "seller",
          "type": "address"
        },
        {
          "internalType": "uint256",
          "name": "amount",
          "type": "uint256"
        },
        {
          "internalType": "bool",
          "name": "released",
          "type": "bool"
        }
      ],
      "stateMutability": "view",
      "type": "function"
    },
    {
      "inputs": [
        {
          "internalType": "uint256",
          "name": "_cropId",
          "type": "uint256"
        }
      ],
      "name": "releasePayment",
      "outputs": [],
      "stateMutability": "nonpayable",
      "type": "function"
    },
    {
      "inputs": [
        {
          "internalType": "uint256",
          "name": "_cropId",
          "type": "uint256"
        },
        {
          "internalType": "address",
          "name": "_to",
          "type": "address"
        }
      ],
      "name": "transferOwnership",
      "outputs": [],
      "stateMutability": "nonpayable",
      "type": "function"
    }
  ],
  "bytecode": "0x608060405234801561001057600080fd5b506125dc806100206000396000f3fe60806040526004361061009c5760003560e01c806387d817891161006457806387d81789146101b257806388685cd9146101f25780638bc7fa9c1461021b578063b31ebbe114610258578063c8691b2a14610274578063dfd55a2c146102b15761009c565b806329507f73146100a15780633280a836146100ca5780636c6629181461010757806370c9f1a51461013057806371d9e19e14610173575b600080fd5b3480156100ad57600080fd5b506100c860048036038101906100c39190611512565b6102dc565b005b3480156100d657600080fd5b506100f160048036038101906100ec9190611552565b6105f1565b6040516100fe919061160d565b60405180910390f35b34801561011357600080fd5b5061012e6004803603810190610129919061176e565b6106ef565b005b34801561013c57600080fd5b5061015760048036038101906101529190611552565b610956565b60405161016a979695949392919061187a565b60405180910390f35b34801561017f57600080fd5b5061019a600480360381019061019591906118f0565b610a60565b6040516101a993929190611930565b60405180910390f35b3480156101be57600080fd5b506101d960048036038101906101d49190611552565b610ae7565b6040516101e99493929190611976565b60405180910390f35b3480156101fe57600080fd5b5061021960048036038101906102149190611552565b610b64565b005b34801561022757600080fd5b50610242600480360381019061023d9190611552565b610dd3565b60405161024f9190611aa1565b60405180910390f35b610272600480360381019061026d9190611512565b610f66565b005b34801561028057600080fd5b5061029b60048036038101906102969190611552565b61127d565b6040516102a89190611bb4565b60405180910390f35b3480156102bd57600080fd5b506102c66113a5565b6040516102d39190611bd6565b60405180910390f35b6000821180156102ee57506000548211155b61032d576040517f08c379a000000000000000000000000000000000000000000000000000000000815260040161032490611c3d565b60405180910390fd5b600073ffffffffffffffffffffffffffffffffffffffff168173ffffffffffffffffffffffffffffffffffffffff160361039c576040517f08c379a000000000000000000000000000000000000000000000000000000000815260040161039390611ca9565b60405180910390fd5b3373ffffffffffffffffffffffffffffffffffffffff166001600084815260200190815260200160002060050160009054906101000a900473ffffffffffffffffffffffffffffffffffffffff1673ffffffffffffffffffffffffffffffffffffffff1614610440576040517f08c379a000000000000000000000000000000000000000000000000000000000815260040161043790611d15565b60405180910390fd5b6002600083815260200190815260200160002060405180606001604052803373ffffffffffffffffffffffffffffffffffffffff1681526020018373ffffffffffffffffffffffffffffffffffffffff16815260200142815250908060018154018082558091505060019003906000526020600020906003020160009091909190915060008201518160000160006101000a81548173ffffffffffffffffffffffffffffffffffffffff021916908373ffffffffffffffffffffffffffffffffffffffff16021790555060208201518160010160006101000a81548173ffffffffffffffffffffffffffffffffffffffff021916908373ffffffffffffffffffffffffffffffffffffffff160217905550604082015181600201555050806001600084815260200190815260200160002060050160006101000a81548173ffffffffffffffffffffffffffffffffffffffff021916908373ffffffffffffffffffffffffffffffffffffffff1602179055507f16b85f49bf01212961345d3016c9a531894accf62eb7680f2045d79185cc0ec08233836040516105e593929190611d35565b60405180910390a15050565b6105f96113ab565b600360008381526020019081526020016000206040518060800160405290816000820160009054906101000a900473ffffffffffffffffffffffffffffffffffffffff1673ffffffffffffffffffffffffffffffffffffffff1673ffffffffffffffffffffffffffffffffffffffff1681526020016001820160009054906101000a900473ffffffffffffffffffffffffffffffffffffffff1673ffffffffffffffffffffffffffffffffffffffff1673ffffffffffffffffffffffffffffffffffffffff168152602001600282015481526020016003820160009054906101000a900460ff1615151515815250509050919050565b6000835111610733576040517f08c379a000000000000000000000000000000000000000000000000000000000815260040161072a90611db8565b60405180910390fd5b60008211610776576040517f08c379a000000000000000000000000000000000000000000000000000000000815260040161076d90611e24565b60405180910390fd5b600081116107b9576040517f08c379a00000000000000000000000000000000000000000000000000000000081526004016107b090611e90565b60405180910390fd5b6000808154809291906107cb90611edf565b91905055506040518060e0016040528060005481526020018481526020018381526020018281526020013373ffffffffffffffffffffffffffffffffffffffff1681526020013373ffffffffffffffffffffffffffffffffffffffff1681526020014281525060016000805481526020019081526020016000206000820151816000015560208201518160010190816108649190612133565b50604082015181600201556060820151816003015560808201518160040160006101000a81548173ffffffffffffffffffffffffffffffffffffffff021916908373ffffffffffffffffffffffffffffffffffffffff16021790555060a08201518160050160006101000a81548173ffffffffffffffffffffffffffffffffffffffff021916908373ffffffffffffffffffffffffffffffffffffffff16021790555060c082015181600601559050507fed1df0b07aee55cd0afdd632e23543ee3365e991d832ffa539d886820072290e600054843360405161094993929190612205565b60405180910390a1505050565b600160205280600052604060002060009150905080600001549080600101805461097f90611f56565b80601f01602080910402602001604051908101604052809291908181526020018280546109ab90611f56565b80156109f85780601f106109cd576101008083540402835291602001916109f8565b820191906000526020600020905b8154815290600101906020018083116109db57829003601f168201915b5050505050908060020154908060030154908060040160009054906101000a900473ffffffffffffffffffffffffffffffffffffffff16908060050160009054906101000a900473ffffffffffffffffffffffffffffffffffffffff16908060060154905087565b60026020528160005260406000208181548110610a7c57600080fd5b9060005260206000209060030201600091509150508060000160009054906101000a900473ffffffffffffffffffffffffffffffffffffffff16908060010160009054906101000a900473ffffffffffffffffffffffffffffffffffffffff16908060020154905083565b60036020528060005260406000206000915090508060000160009054906101000a900473ffffffffffffffffffffffffffffffffffffffff16908060010160009054906101000a900473ffffffffffffffffffffffffffffffffffffffff16908060020154908060030160009054906101000a900460ff16905084565b60006003600083815260200190815260200160002090506000816002015411610bc2576040517f08c379a0000000000000000000000000000000000000000000000000000000008152600401610bb99061228f565b60405180910390fd5b8060000160009054906101000a900473ffffffffffffffffffffffffffffffffffffffff1673ffffffffffffffffffffffffffffffffffffffff163373ffffffffffffffffffffffffffffffffffffffff1614610c54576040517f08c379a0000000000000000000000000000000000000000000000000000000008152600401610c4b906122fb565b60405180910390fd5b8060030160009054906101000a900460ff1615610ca6576040517f08c379a0000000000000000000000000000000000000000000000000000000008152600401610c9d90612367565b60405180910390fd5b60018160030160006101000a81548160ff02191690831515021790555060008160010160009054906101000a900473ffffffffffffffffffffffffffffffffffffffff1673ffffffffffffffffffffffffffffffffffffffff168260020154604051610d11906123b8565b60006040518083038185875af1925050503d8060008114610d4e576040519150601f19603f3d011682016040523d82523d6000602084013e610d53565b606091505b5050905080610d97576040517f08c379a0000000000000000000000000000000000000000000000000000000008152600401610d8e90612419565b60405180910390fd5b7f7094d01aa39ef767229e67850ef530b588b0dc1576b827e94f51a1f06300743483604051610dc69190611bd6565b60405180910390a1505050565b610ddb611401565b600160008381526020019081526020016000206040518060e001604052908160008201548152602001600182018054610e1390611f56565b80601f0160208091040260200160405190810160405280929190818152602001828054610e3f90611f56565b8015610e8c5780601f10610e6157610100808354040283529160200191610e8c565b820191906000526020600020905b815481529060010190602001808311610e6f57829003601f168201915b5050505050815260200160028201548152602001600382015481526020016004820160009054906101000a900473ffffffffffffffffffffffffffffffffffffffff1673ffffffffffffffffffffffffffffffffffffffff1673ffffffffffffffffffffffffffffffffffffffff1681526020016005820160009054906101000a900473ffffffffffffffffffffffffffffffffffffffff1673ffffffffffffffffffffffffffffffffffffffff1673ffffffffffffffffffffffffffffffffffffffff1681526020016006820154815250509050919050565b600082118015610f7857506000548211155b610fb7576040517f08c379a0000000000000000000000000000000000000000000000000000000008152600401610fae90611c3d565b60405180910390fd5b60003411610ffa576040517f08c379a0000000000000000000000000000000000000000000000000000000008152600401610ff190612485565b60405180910390fd5b6001600083815260200190815260200160002060050160009054906101000a900473ffffffffffffffffffffffffffffffffffffffff1673ffffffffffffffffffffffffffffffffffffffff168173ffffffffffffffffffffffffffffffffffffffff161461109e576040517f08c379a0000000000000000000000000000000000000000000000000000000008152600401611095906124f1565b60405180910390fd5b6000600360008481526020019081526020016000206002015414806110e357506003600083815260200190815260200160002060030160009054906101000a900460ff165b611122576040517f08c379a00000000000000000000000000000000000000000000000000000000081526004016111199061255d565b60405180910390fd5b60405180608001604052803373ffffffffffffffffffffffffffffffffffffffff1681526020018273ffffffffffffffffffffffffffffffffffffffff168152602001348152602001600015158152506003600084815260200190815260200160002060008201518160000160006101000a81548173ffffffffffffffffffffffffffffffffffffffff021916908373ffffffffffffffffffffffffffffffffffffffff16021790555060208201518160010160006101000a81548173ffffffffffffffffffffffffffffffffffffffff021916908373ffffffffffffffffffffffffffffffffffffffff1602179055506040820151816002015560608201518160030160006101000a81548160ff0219169083151502179055509050507f0e65f36a6834d0eacdafce32b7aa7351be7c62fde1e6d957367be128c850d2d2823460405161127192919061257d565b60405180910390a15050565b606060026000838152602001908152602001600020805480602002602001604051908101604052809291908181526020016000905b8282101561139a57838290600052602060002090600302016040518060600160405290816000820160009054906101000a900473ffffffffffffffffffffffffffffffffffffffff1673ffffffffffffffffffffffffffffffffffffffff1673ffffffffffffffffffffffffffffffffffffffff1681526020016001820160009054906101000a900473ffffffffffffffffffffffffffffffffffffffff1673ffffffffffffffffffffffffffffffffffffffff1673ffffffffffffffffffffffffffffffffffffffff168152602001600282015481525050815260200190600101906112b2565b505050509050919050565b60005481565b6040518060800160405280600073ffffffffffffffffffffffffffffffffffffffff168152602001600073ffffffffffffffffffffffffffffffffffffffff168152602001600081526020016000151581525090565b6040518060e0016040528060008152602001606081526020016000815260200160008152602001600073ffffffffffffffffffffffffffffffffffffffff168152602001600073ffffffffffffffffffffffffffffffffffffffff168152602001600081525090565b6000604051905090565b600080fd5b600080fd5b6000819050919050565b6114918161147e565b811461149c57600080fd5b50565b6000813590506114ae81611488565b92915050565b600073ffffffffffffffffffffffffffffffffffffffff82169050919050565b60006114df826114b4565b9050919050565b6114ef816114d4565b81146114fa57600080fd5b50565b60008135905061150c816114e6565b92915050565b6000806040838503121561152957611528611474565b5b60006115378582860161149f565b9250506020611548858286016114fd565b9150509250929050565b60006020828403121561156857611567611474565b5b60006115768482850161149f565b91505092915050565b611588816114d4565b82525050565b6115978161147e565b82525050565b60008115159050919050565b6115b28161159d565b82525050565b6080820160008201516115ce600085018261157f565b5060208201516115e1602085018261157f565b5060408201516115f4604085018261158e565b50606082015161160760608501826115a9565b50505050565b600060808201905061162260008301846115b8565b92915050565b600080fd5b600080fd5b6000601f19601f8301169050919050565b7f4e487b7100000000000000000000000000000000000000000000000000000000600052604160045260246000fd5b61167b82611632565b810181811067ffffffffffffffff8211171561169a57611699611643565b5b80604052505050565b60006116ad61146a565b90506116b98282611672565b919050565b600067ffffffffffffffff8211156116d9576116d8611643565b5b6116e282611632565b9050602081019050919050565b82818337600083830152505050565b600061171161170c846116be565b6116a3565b90508281526020810184848401111561172d5761172c61162d565b5b6117388482856116ef565b509392505050565b600082601f83011261175557611754611628565b5b81356117658482602086016116fe565b91505092915050565b60008060006060848603121561178757611786611474565b5b600084013567ffffffffffffffff8111156117a5576117a4611479565b5b6117b186828701611740565b93505060206117c28682870161149f565b92505060406117d38682870161149f565b9150509250925092565b6117e68161147e565b82525050565b600081519050919050565b600082825260208201905092915050565b60005b8381101561182657808201518184015260208101905061180b565b60008484015250505050565b600061183d826117ec565b61184781856117f7565b9350611857818560208601611808565b61186081611632565b840191505092915050565b611874816114d4565b82525050565b600060e08201905061188f600083018a6117dd565b81810360208301526118a18189611832565b90506118b060408301886117dd565b6118bd60608301876117dd565b6118ca608083018661186b565b6118d760a083018561186b565b6118e460c08301846117dd565b98975050505050505050565b6000806040838503121561190757611906611474565b5b60006119158582860161149f565b92505060206119268582860161149f565b9150509250929050565b6000606082019050611945600083018661186b565b611952602083018561186b565b61195f60408301846117dd565b949350505050565b6119708161159d565b82525050565b600060808201905061198b600083018761186b565b611998602083018661186b565b6119a560408301856117dd565b6119b26060830184611967565b95945050505050565b600082825260208201905092915050565b60006119d7826117ec565b6119e181856119bb565b93506119f1818560208601611808565b6119fa81611632565b840191505092915050565b600060e083016000830151611a1d600086018261158e565b5060208301518482036020860152611a3582826119cc565b9150506040830151611a4a604086018261158e565b506060830151611a5d606086018261158e565b506080830151611a70608086018261157f565b5060a0830151611a8360a086018261157f565b5060c0830151611a9660c086018261158e565b508091505092915050565b60006020820190508181036000830152611abb8184611a05565b905092915050565b600081519050919050565b600082825260208201905092915050565b6000819050602082019050919050565b606082016000820151611b05600085018261157f565b506020820151611b18602085018261157f565b506040820151611b2b604085018261158e565b50505050565b6000611b3d8383611aef565b60608301905092915050565b6000602082019050919050565b6000611b6182611ac3565b611b6b8185611ace565b9350611b7683611adf565b8060005b83811015611ba7578151611b8e8882611b31565b9750611b9983611b49565b925050600181019050611b7a565b5085935050505092915050565b60006020820190508181036000830152611bce8184611b56565b905092915050565b6000602082019050611beb60008301846117dd565b92915050565b7f43726f70206e6f7420666f756e64000000000000000000000000000000000000600082015250565b6000611c27600e836117f7565b9150611c3282611bf1565b602082019050919050565b60006020820190508181036000830152611c5681611c1a565b9050919050565b7f496e76616c696420726563697069656e74000000000000000000000000000000600082015250565b6000611c936011836117f7565b9150611c9e82611c5d565b602082019050919050565b60006020820190508181036000830152611cc281611c86565b9050919050565b7f4e6f74206f776e65720000000000000000000000000000000000000000000000600082015250565b6000611cff6009836117f7565b9150611d0a82611cc9565b602082019050919050565b60006020820190508181036000830152611d2e81611cf2565b9050919050565b6000606082019050611d4a60008301866117dd565b611d57602083018561186b565b611d64604083018461186b565b949350505050565b7f4e616d6520726571756972656400000000000000000000000000000000000000600082015250565b6000611da2600d836117f7565b9150611dad82611d6c565b602082019050919050565b60006020820190508181036000830152611dd181611d95565b9050919050565b7f5175616e74697479207265717569726564000000000000000000000000000000600082015250565b6000611e0e6011836117f7565b9150611e1982611dd8565b602082019050919050565b60006020820190508181036000830152611e3d81611e01565b9050919050565b7f5072696365207265717569726564000000000000000000000000000000000000600082015250565b6000611e7a600e836117f7565b9150611e8582611e44565b602082019050919050565b60006020820190508181036000830152611ea981611e6d565b9050919050565b7f4e487b7100000000000000000000000000000000000000000000000000000000600052601160045260246000fd5b6000611eea8261147e565b91507fffffffffffffffffffffffffffffffffffffffffffffffffffffffffffffffff8203611f1c57611f1b611eb0565b5b600182019050919050565b7f4e487b7100000000000000000000000000000000000000000000000000000000600052602260045260246000fd5b60006002820490506001821680611f6e57607f821691505b602082108103611f8157611f80611f27565b5b50919050565b60008190508160005260206000209050919050565b60006020601f8301049050919050565b600082821b905092915050565b600060088302611fe97fffffffffffffffffffffffffffffffffffffffffffffffffffffffffffffffff82611fac565b611ff38683611fac565b95508019841693508086168417925050509392505050565b6000819050919050565b600061203061202b6120268461147e565b61200b565b61147e565b9050919050565b6000819050919050565b61204a83612015565b61205e61205682612037565b848454611fb9565b825550505050565b600090565b612073612066565b61207e818484612041565b505050565b5b818110156120a25761209760008261206b565b600181019050612084565b5050565b601f8211156120e7576120b881611f87565b6120c184611f9c565b810160208510156120d0578190505b6120e46120dc85611f9c565b830182612083565b50505b505050565b600082821c905092915050565b600061210a600019846008026120ec565b1980831691505092915050565b600061212383836120f9565b9150826002028217905092915050565b61213c826117ec565b67ffffffffffffffff81111561215557612154611643565b5b61215f8254611f56565b61216a8282856120a6565b600060209050601f83116001811461219d576000841561218b578287015190505b6121958582612117565b8655506121fd565b601f1984166121ab86611f87565b60005b828110156121d3578489015182556001820191506020850194506020810190506121ae565b868310156121f057848901516121ec601f8916826120f9565b8355505b6001600288020188555050505b505050505050565b600060608201905061221a60008301866117dd565b818103602083015261222c8185611832565b905061223b604083018461186b565b949350505050565b7f5061796d656e74206e6f7420666f756e64000000000000000000000000000000600082015250565b60006122796011836117f7565b915061228482612243565b602082019050919050565b600060208201905081810360008301526122a88161226c565b9050919050565b7f4f6e6c792062757965722063616e2072656c6561736500000000000000000000600082015250565b60006122e56016836117f7565b91506122f0826122af565b602082019050919050565b60006020820190508181036000830152612314816122d8565b9050919050565b7f416c72656164792072656c656173656400000000000000000000000000000000600082015250565b60006123516010836117f7565b915061235c8261231b565b602082019050919050565b6000602082019050818103600083015261238081612344565b9050919050565b600081905092915050565b50565b60006123a2600083612387565b91506123ad82612392565b600082019050919050565b60006123c382612395565b9150819050919050565b7f5061796d656e74207472616e73666572206661696c6564000000000000000000600082015250565b60006124036017836117f7565b915061240e826123cd565b602082019050919050565b60006020820190508181036000830152612432816123f6565b9050919050565b7f4e6f204554482073656e74000000000000000000000000000000000000000000600082015250565b600061246f600b836117f7565b915061247a82612439565b602082019050919050565b6000602082019050818103600083015261249e81612462565b9050919050565b7f53656c6c6572206973206e6f74206f776e657200000000000000000000000000600082015250565b60006124db6013836117f7565b91506124e6826124a5565b602082019050919050565b6000602082019050818103600083015261250a816124ce565b9050919050565b7f5061796d656e7420616c72656164792061637469766500000000000000000000600082015250565b60006125476016836117f7565b915061255282612511565b602082019050919050565b600060208201905081810360008301526125768161253a565b9050919050565b600060408201905061259260008301856117dd565b61259f60208301846117dd565b939250505056fea26469706673582212205174fc12035aeddba047dac1cab6690357827ed830cb6c52010bf61e9f13f11b64736f6c63430008140033",
  "linkReferences": {},
  "deployedLinkReferences": {}
}