{
  "_format": "hh-sol-artifact-1",
  "contractName": "AgriChain",
  "sourceName": "contracts/AgriChain.sol",
  "abi": [
    {
      "anonymous": false,
      "inputs": [
        {
          "indexed": false,
          "internalType": "uint256",
          "name": "id",
          "type": "uint256"
        },
        {
          "indexed": false,
          "internalType": "string",
          "name": "name",
          "type": "string"
        },
        {
          "indexed": false,
          "internalType": "address",
          "name": "farmer",
          "type": "address"
        }
      ],
      "name": "CropAdded",
      "type": "event"
    },
    {
      "anonymous": false,
      "inputs": [
        {
          "indexed": false,
          "internalType": "uint256",
          "name": "cropId",
          "type": "uint256"
        },
        {
          "indexed": false,
          "internalType": "address",
          "name": "from",
          "type": "address"
        },
        {
          "indexed": false,
          "internalType": "address",
          "name": "to",
          "type": "address"
        }
      ],
      "name": "OwnershipTransferred",
      "type": "event"
    },
    {
      "anonymous": false,
      "inputs": [
        {
          "indexed": false,
          "internalType": "uint256",
          "name": "cropId",
          "type": "uint256"
        },
        {
          "indexed": false,
          "internalType": "uint256",
          "name": "amount",
          "type": "uint256"
        }
      ],
      "name": "PaymentCreated",
      "type": "event"
    },
    {
      "anonymous": false,
      "inputs": [
        {
          "indexed": false,
          "internalType": "uint256",
          "name": "cropId",
          "type": "uint256"
        }
      ],
      "name": "PaymentReleased",
      "type": "event"
    },
    {
      "inputs": [
        {
          "internalType": "string",
          "name": "_name",
          "type": "string"
        },
        {
          "internalType": "uint256",
          "name": "_quantity",
          "type": "uint256"
        },
        {
          "internalType": "uint256",
          "name": "_price",
          "type": "uint256"
        }
      ],
      "name": "addCrop",
      "outputs": [],
      "stateMutability": "nonpayable",
      "type": "function"
    },
    {
      "inputs": [
        {
          "internalType": "uint256",
          "name": "_cropId",
          "type": "uint256"
        },
        {
          "internalType": "address",
          "name": "_seller",
          "type": "address"
        }
      ],
      "name": "createPayment",
      "outputs": [],
      "stateMutability": "payable",
      "type": "function"
    },
    {
      "inputs": [],
      "name": "cropCount",
      "outputs": [
        {
          "internalType": "uint256",
          "name": "",
          "type": "uint256"
        }
      ],
      "stateMutability": "view",
      "type": "function"
    },
    {
      "inputs": [
        {
          "internalType": "uint256",
          "name": "",
          "type": "uint256"
        }
      ],
      "name": "crops",
      "outputs": [
        {
          "internalType": "uint256",
          "name": "id",
          "type": "uint256"
        },
        {
          "internalType": "string",
          "name": "name",
          "type": "string"
        },
        {
          "internalType": "uint256",
          "name": "quantity",
          "type": "uint256"
        },
        {
          "internalType": "uint256",
          "name": "price",
          "type": "uint256"
        },
        {
          "internalType": "address",
          "name": "farmer",
          "type": "address"
        },
        {
          "internalType": "address",
          "name": "currentOwner",
          "type": "address"
        },
        {
          "internalType": "uint256",
          "name": "timestamp",
          "type": "uint256"
        }
      ],
      "stateMutability": "view",
      "type": "function"
    },
    {
      "inputs": [
        {
          "internalType": "uint256",
          "name": "_cropId",
          "type": "uint256"
        }
      ],
      "name": "getCrop",
      "outputs": [
        {
          "components": [
            {
              "internalType": "uint256",
              "name": "id",
              "type": "uint256"
            },
            {
              "internalType": "string",
              "name": "name",
              "type": "string"
            },
            {
              "internalType": "uint256",
              "name": "quantity",
              "type": "uint256"
            },
            {
              "internalType": "uint256",
              "name": "price",
              "type": "uint256"
            },
            {
              "internalType": "address",
              "name": "farmer",
              "type": "address"
            },
            {
              "internalType": "address",
              "name": "currentOwner",
              "type": "address"
            },
            {
              "internalType": "uint256",
              "name": "timestamp",
              "type": "uint256"
            }
          ],
          "internalType": "struct AgriChain.Crop",
          "name": "",
          "type": "tuple"
        }
      ],
      "stateMutability": "view",
      "type": "function"
    },
    {
      "inputs": [
        {
          "internalType": "uint256",
          "name": "_cropId",
          "type": "uint256"
        }
      ],
      "name": "getHistory",
      "outputs": [
        {
          "components": [
            {
              "internalType": "address",
              "name": "from",
              "type": "address"
            },
            {
              "internalType": "address",
              "name": "to",
              "type": "address"
            },
            {
              "internalType": "uint256",
              "name": "timestamp",
              "type": "uint256"
            }
          ],
          "internalType": "struct AgriChain.Transfer[]",
          "name": "",
          "type": "tuple[]"
        }
      ],
      "stateMutability": "view",
      "type": "function"
    },
    {
      "inputs": [
        {
          "internalType": "uint256",
          "name": "_cropId",
          "type": "uint256"
        }
      ],
      "name": "getPayment",
      "outputs": [
        {
          "components": [
            {
              "internalType": "address",
              "name": "buyer",
              "type": "address"
            },
            {
              "internalType": "address",
              "name": "seller",
              "type": "address"
            },
            {
              "internalType": "uint256",
              "name": "amount",
              "type": "uint256"
            },
            {
              "internalType": "bool",
              "name": "released",
              "type": "bool"
            }
          ],
          "internalType": "struct AgriChain.Payment",
          "name": "",
          "type": "tuple"
        }
      ],
      "stateMutability": "view",
      "type": "function"
    },
    {
      "inputs": [
        {
          "internalType": "uint256",
          "name": "",
          "type": "uint256"
        },
        {
          "internalType": "uint256",
          "name": "",
          "type": "uint256"
        }
      ],
      "name": "history",
      "outputs": [
        {
          "internalType": "address",
          "name": "from",
          "type": "address"
        },
        {
          "internalType": "address",
          "name": "to",
          "type": "address"
        },
        {
          "internalType": "uint256",
          "name": "timestamp",
          "type": "uint256"
        }
      ],
      "stateMutability": "view",
      "type": "function"
    },
    {
      "inputs": [
        {
          "internalType": "uint256",
          "name": "",
          "type": "uint256"
        }
      ],
      "name": "payments",
      "outputs": [
        {
          "internalType": "address",
          "name": "buyer",
          "type": "address"
        },
        {
          "internalType": "address",
          "name": "seller",
          "type": "address"
        },
        {
          "internalType": "uint256",
          "name": "amount",
          "type": "uint256"
        },
        {
          "internalType": "bool",
          "name": "released",
          "type": "bool"
        }
      ],
      "stateMutability": "view",
      "type": "function"
    },
    {
      "inputs": [
        {
          "internalType": "uint256",
          "name": "_cropId",
          "type": "uint256"
        }
      ],
      "name": "releasePayment",
      "outputs": [],
      "stateMutability": "nonpayable",
      "type": "function"
    },
    {
      "inputs": [
        {
          "internalType": "uint256",
          "name": "_cropId",
          "type": "uint256"
        },
        {
          "internalType": "address",
          "name": "_to",
          "type": "address"
        }
      ],
      "name": "transferOwnership",
      "outputs": [],
      "stateMutability": "nonpayable",
      "type": "function"
    }
  ],
  "bytecode": "0x608060405234801561001057600080fd5b50611d1c806100206000396000f3fe60806040526004361061009c5760003560e01c806387d817891161006457806387d81789146101b257806388685cd9146101f25780638bc7fa9c1461021b578063b31ebbe114610258578063c8691b2a14610274578063dfd55a2c146102b15761009c565b806329507f73146100a15780633280a836146100ca5780636c6629181461010757806370c9f1a51461013057806371d9e19e14610173575b600080fd5b3480156100ad57600080fd5b506100c860048036038101906100c391906110d0565b6102dc565b005b3480156100d657600080fd5b506100f160048036038101906100ec9190611110565b610531565b6040516100fe91906111cb565b60405180910390f35b34801561011357600080fd5b5061012e6004803603810190610129919061132c565b61062f565b005b34801561013c57600080fd5b5061015760048036038101906101529190611110565b6107cc565b60405161016a9796959493929190611438565b60405180910390f35b34801561017f57600080fd5b5061019a600480360381019061019591906114ae565b6108d6565b6040516101a9939291906114ee565b60405180910390f35b3480156101be57600080fd5b506101d960048036038101906101d49190611110565b61095d565b6040516101e99493929190611534565b60405180910390f35b3480156101fe57600080fd5b5061021960048036038101906102149190611110565b6109da565b005b34801561022757600080fd5b50610242600480360381019061023d9190611110565b610b0a565b60405161024f919061165f565b60405180910390f35b610272600480360381019061026d91906110d0565b610c9d565b005b34801561028057600080fd5b5061029b60048036038101906102969190611110565b610e3b565b6040516102a89190611772565b60405180910390f35b3480156102bd57600080fd5b506102c6610f63565b6040516102d39190611794565b60405180910390f35b3373ffffffffffffffffffffffffffffffffffffffff166001600084815260200190815260200160002060050160009054906101000a900473ffffffffffffffffffffffffffffffffffffffff1673ffffffffffffffffffffffffffffffffffffffff1614610380576040517f08c379a0000000000000000000000000000000000000000000000000000000008152600401610377906117fb565b60405180910390fd5b6002600083815260200190815260200160002060405180606001604052803373ffffffffffffffffffffffffffffffffffffffff1681526020018373ffffffffffffffffffffffffffffffffffffffff16815260200142815250908060018154018082558091505060019003906000526020600020906003020160009091909190915060008201518160000160006101000a81548173ffffffffffffffffffffffffffffffffffffffff021916908373ffffffffffffffffffffffffffffffffffffffff16021790555060208201518160010160006101000a81548173ffffffffffffffffffffffffffffffffffffffff021916908373ffffffffffffffffffffffffffffffffffffffff160217905550604082015181600201555050806001600084815260200190815260200160002060050160006101000a81548173ffffffffffffffffffffffffffffffffffffffff021916908373ffffffffffffffffffffffffffffffffffffffff1602179055507f16b85f49bf01212961345d3016c9a531894accf62eb7680f2045d79185cc0ec08233836040516105259392919061181b565b60405180910390a15050565b610539610f69565b600360008381526020019081526020016000206040518060800160405290816000820160009054906101000a900473ffffffffffffffffffffffffffffffffffffffff1673ffffffffffffffffffffffffffffffffffffffff1673ffffffffffffffffffffffffffffffffffffffff1681526020016001820160009054906101000a900473ffffffffffffffffffffffffffffffffffffffff1673ffffffffffffffffffffffffffffffffffffffff1673ffffffffffffffffffffffffffffffffffffffff168152602001600282015481526020016003820160009054906101000a900460ff1615151515815250509050919050565b60008081548092919061064190611881565b91905055506040518060e0016040528060005481526020018481526020018381526020018281526020013373ffffffffffffffffffffffffffffffffffffffff1681526020013373ffffffffffffffffffffffffffffffffffffffff1681526020014281525060016000805481526020019081526020016000206000820151816000015560208201518160010190816106da9190611ad5565b50604082015181600201556060820151816003015560808201518160040160006101000a81548173ffffffffffffffffffffffffffffffffffffffff021916908373ffffffffffffffffffffffffffffffffffffffff16021790555060a08201518160050160006101000a81548173ffffffffffffffffffffffffffffffffffffffff021916908373ffffffffffffffffffffffffffffffffffffffff16021790555060c082015181600601559050507fed1df0b07aee55cd0afdd632e23543ee3365e991d832ffa539d886820072290e60005484336040516107bf93929190611ba7565b60405180910390a1505050565b60016020528060005260406000206000915090508060000154908060010180546107f5906118f8565b80601f0160208091040260200160405190810160405280929190818152602001828054610821906118f8565b801561086e5780601f106108435761010080835404028352916020019161086e565b820191906000526020600020905b81548152906001019060200180831161085157829003601f168201915b5050505050908060020154908060030154908060040160009054906101000a900473ffffffffffffffffffffffffffffffffffffffff16908060050160009054906101000a900473ffffffffffffffffffffffffffffffffffffffff16908060060154905087565b600260205281600052604060002081815481106108f257600080fd5b9060005260206000209060030201600091509150508060000160009054906101000a900473ffffffffffffffffffffffffffffffffffffffff16908060010160009054906101000a900473ffffffffffffffffffffffffffffffffffffffff16908060020154905083565b60036020528060005260406000206000915090508060000160009054906101000a900473ffffffffffffffffffffffffffffffffffffffff16908060010160009054906101000a900473ffffffffffffffffffffffffffffffffffffffff16908060020154908060030160009054906101000a900460ff16905084565b60006003600083815260200190815260200160002090508060030160009054906101000a900460ff1615610a43576040517f08c379a0000000000000000000000000000000000000000000000000000000008152600401610a3a90611c31565b60405180910390fd5b8060010160009054906101000a900473ffffffffffffffffffffffffffffffffffffffff1673ffffffffffffffffffffffffffffffffffffffff166108fc82600201549081150290604051600060405180830381858888f19350505050158015610ab1573d6000803e3d6000fd5b5060018160030160006101000a81548160ff0219169083151502179055507f7094d01aa39ef767229e67850ef530b588b0dc1576b827e94f51a1f06300743482604051610afe9190611794565b60405180910390a15050565b610b12610fbf565b600160008381526020019081526020016000206040518060e001604052908160008201548152602001600182018054610b4a906118f8565b80601f0160208091040260200160405190810160405280929190818152602001828054610b76906118f8565b8015610bc35780601f10610b9857610100808354040283529160200191610bc3565b820191906000526020600020905b815481529060010190602001808311610ba657829003601f168201915b5050505050815260200160028201548152602001600382015481526020016004820160009054906101000a900473ffffffffffffffffffffffffffffffffffffffff1673ffffffffffffffffffffffffffffffffffffffff1673ffffffffffffffffffffffffffffffffffffffff1681526020016005820160009054906101000a900473ffffffffffffffffffffffffffffffffffffffff1673ffffffffffffffffffffffffffffffffffffffff1673ffffffffffffffffffffffffffffffffffffffff1681526020016006820154815250509050919050565b60003411610ce0576040517f08c379a0000000000000000000000000000000000000000000000000000000008152600401610cd790611c9d565b60405180910390fd5b60405180608001604052803373ffffffffffffffffffffffffffffffffffffffff1681526020018273ffffffffffffffffffffffffffffffffffffffff168152602001348152602001600015158152506003600084815260200190815260200160002060008201518160000160006101000a81548173ffffffffffffffffffffffffffffffffffffffff021916908373ffffffffffffffffffffffffffffffffffffffff16021790555060208201518160010160006101000a81548173ffffffffffffffffffffffffffffffffffffffff021916908373ffffffffffffffffffffffffffffffffffffffff1602179055506040820151816002015560608201518160030160006101000a81548160ff0219169083151502179055509050507f0e65f36a6834d0eacdafce32b7aa7351be7c62fde1e6d957367be128c850d2d28234604051610e2f929190611cbd565b60405180910390a15050565b606060026000838152602001908152602001600020805480602002602001604051908101604052809291908181526020016000905b82821015610f5857838290600052602060002090600302016040518060600160405290816000820160009054906101000a900473ffffffffffffffffffffffffffffffffffffffff1673ffffffffffffffffffffffffffffffffffffffff1673ffffffffffffffffffffffffffffffffffffffff1681526020016001820160009054906101000a900473ffffffffffffffffffffffffffffffffffffffff1673ffffffffffffffffffffffffffffffffffffffff1673ffffffffffffffffffffffffffffffffffffffff16815260200160028201548152505081526020019060010190610e70565b505050509050919050565b60005481565b6040518060800160405280600073ffffffffffffffffffffffffffffffffffffffff168152602001600073ffffffffffffffffffffffffffffffffffffffff168152602001600081526020016000151581525090565b6040518060e0016040528060008152602001606081526020016000815260200160008152602001600073ffffffffffffffffffffffffffffffffffffffff168152602001600073ffffffffffffffffffffffffffffffffffffffff168152602001600081525090565b6000604051905090565b600080fd5b600080fd5b6000819050919050565b61104f8161103c565b811461105a57600080fd5b50565b60008135905061106c81611046565b92915050565b600073ffffffffffffffffffffffffffffffffffffffff82169050919050565b600061109d82611072565b9050919050565b6110ad81611092565b81146110b857600080fd5b50565b6000813590506110ca816110a4565b92915050565b600080604083850312156110e7576110e6611032565b5b60006110f58582860161105d565b9250506020611106858286016110bb565b9150509250929050565b60006020828403121561112657611125611032565b5b60006111348482850161105d565b91505092915050565b61114681611092565b82525050565b6111558161103c565b82525050565b60008115159050919050565b6111708161115b565b82525050565b60808201600082015161118c600085018261113d565b50602082015161119f602085018261113d565b5060408201516111b2604085018261114c565b5060608201516111c56060850182611167565b50505050565b60006080820190506111e06000830184611176565b92915050565b600080fd5b600080fd5b6000601f19601f8301169050919050565b7f4e487b7100000000000000000000000000000000000000000000000000000000600052604160045260246000fd5b611239826111f0565b810181811067ffffffffffffffff8211171561125857611257611201565b5b80604052505050565b600061126b611028565b90506112778282611230565b919050565b600067ffffffffffffffff82111561129757611296611201565b5b6112a0826111f0565b9050602081019050919050565b82818337600083830152505050565b60006112cf6112ca8461127c565b611261565b9050828152602081018484840111156112eb576112ea6111eb565b5b6112f68482856112ad565b509392505050565b600082601f830112611313576113126111e6565b5b81356113238482602086016112bc565b91505092915050565b60008060006060848603121561134557611344611032565b5b600084013567ffffffffffffffff81111561136357611362611037565b5b61136f868287016112fe565b93505060206113808682870161105d565b92505060406113918682870161105d565b9150509250925092565b6113a48161103c565b82525050565b600081519050919050565b600082825260208201905092915050565b60005b838110156113e45780820151818401526020810190506113c9565b60008484015250505050565b60006113fb826113aa565b61140581856113b5565b93506114158185602086016113c6565b61141e816111f0565b840191505092915050565b61143281611092565b82525050565b600060e08201905061144d600083018a61139b565b818103602083015261145f81896113f0565b905061146e604083018861139b565b61147b606083018761139b565b6114886080830186611429565b61149560a0830185611429565b6114a260c083018461139b565b98975050505050505050565b600080604083850312156114c5576114c4611032565b5b60006114d38582860161105d565b92505060206114e48582860161105d565b9150509250929050565b60006060820190506115036000830186611429565b6115106020830185611429565b61151d604083018461139b565b949350505050565b61152e8161115b565b82525050565b60006080820190506115496000830187611429565b6115566020830186611429565b611563604083018561139b565b6115706060830184611525565b95945050505050565b600082825260208201905092915050565b6000611595826113aa565b61159f8185611579565b93506115af8185602086016113c6565b6115b8816111f0565b840191505092915050565b600060e0830160008301516115db600086018261114c565b50602083015184820360208601526115f3828261158a565b9150506040830151611608604086018261114c565b50606083015161161b606086018261114c565b50608083015161162e608086018261113d565b5060a083015161164160a086018261113d565b5060c083015161165460c086018261114c565b508091505092915050565b6000602082019050818103600083015261167981846115c3565b905092915050565b600081519050919050565b600082825260208201905092915050565b6000819050602082019050919050565b6060820160008201516116c3600085018261113d565b5060208201516116d6602085018261113d565b5060408201516116e9604085018261114c565b50505050565b60006116fb83836116ad565b60608301905092915050565b6000602082019050919050565b600061171f82611681565b611729818561168c565b93506117348361169d565b8060005b8381101561176557815161174c88826116ef565b975061175783611707565b925050600181019050611738565b5085935050505092915050565b6000602082019050818103600083015261178c8184611714565b905092915050565b60006020820190506117a9600083018461139b565b92915050565b7f4e6f74206f776e65720000000000000000000000000000000000000000000000600082015250565b60006117e56009836113b5565b91506117f0826117af565b602082019050919050565b60006020820190508181036000830152611814816117d8565b9050919050565b6000606082019050611830600083018661139b565b61183d6020830185611429565b61184a6040830184611429565b949350505050565b7f4e487b7100000000000000000000000000000000000000000000000000000000600052601160045260246000fd5b600061188c8261103c565b91507fffffffffffffffffffffffffffffffffffffffffffffffffffffffffffffffff82036118be576118bd611852565b5b600182019050919050565b7f4e487b7100000000000000000000000000000000000000000000000000000000600052602260045260246000fd5b6000600282049050600182168061191057607f821691505b602082108103611923576119226118c9565b5b50919050565b60008190508160005260206000209050919050565b60006020601f8301049050919050565b600082821b905092915050565b60006008830261198b7fffffffffffffffffffffffffffffffffffffffffffffffffffffffffffffffff8261194e565b611995868361194e565b95508019841693508086168417925050509392505050565b6000819050919050565b60006119d26119cd6119c88461103c565b6119ad565b61103c565b9050919050565b6000819050919050565b6119ec836119b7565b611a006119f8826119d9565b84845461195b565b825550505050565b600090565b611a15611a08565b611a208184846119e3565b505050565b5b81811015611a4457611a39600082611a0d565b600181019050611a26565b5050565b601f821115611a8957611a5a81611929565b611a638461193e565b81016020851015611a72578190505b611a86611a7e8561193e565b830182611a25565b50505b505050565b600082821c905092915050565b6000611aac60001984600802611a8e565b1980831691505092915050565b6000611ac58383611a9b565b9150826002028217905092915050565b611ade826113aa565b67ffffffffffffffff811115611af757611af6611201565b5b611b0182546118f8565b611b0c828285611a48565b600060209050601f831160018114611b3f5760008415611b2d578287015190505b611b378582611ab9565b865550611b9f565b601f198416611b4d86611929565b60005b82811015611b7557848901518255600182019150602085019450602081019050611b50565b86831015611b925784890151611b8e601f891682611a9b565b8355505b6001600288020188555050505b505050505050565b6000606082019050611bbc600083018661139b565b8181036020830152611bce81856113f0565b9050611bdd6040830184611429565b949350505050565b7f416c72656164792072656c656173656400000000000000000000000000000000600082015250565b6000611c1b6010836113b5565b9150611c2682611be5565b602082019050919050565b60006020820190508181036000830152611c4a81611c0e565b9050919050565b7f4e6f204554482073656e74000000000000000000000000000000000000000000600082015250565b6000611c87600b836113b5565b9150611c9282611c51565b602082019050919050565b60006020820190508181036000830152611cb681611c7a565b9050919050565b6000604082019050611cd2600083018561139b565b611cdf602083018461139b565b939250505056fea2646970667358221220f57a9846489ab864c6b640a1b702cc10f90540f3c7d572a3765c4ee5fe4d3e7264736f6c63430008140033",
  "linkReferences": {},
  "deployedLinkReferences": {}
}