{
  "_format": "hh-sol-artifact-1",
  "contractName": "AgriChain",
  "sourceName": "contracts/AgriChain.sol",
  "abi": [
    {
      "anonymous": false,
      "inputs": [
        {
          "indexed": false,
          "internalType": "uint256",
          "name": "id",
          "type": "uint256"
        },
        {
          "indexed": false,
          "internalType": "string",
          "name": "name",
          "type": "string"
        },
        {
          "indexed": false,
          "internalType": "address",
          "name": "farmer",
          "type": "address"
        }
      ],
      "name": "CropAdded",
      "type": "event"
    },
    {
      "anonymous": false,
      "inputs": [
        {
          "indexed": false,
          "internalType": "uint256",
          "name": "cropId",
          "type": "uint256"
        },
        {
          "indexed": false,
          "internalType": "address",
          "name": "from",
          "type": "address"
        },
        {
          "indexed": false,
          "internalType": "address",
          "name": "to",
          "type": "address"
        }
      ],
      "name": "OwnershipTransferred",
      "type": "event"
    },
    {
      "anonymous": false,
      "inputs": [
        {
          "indexed": false,
          "internalType": "uint256",
          "name": "cropId",
          "type": "uint256"
        },
        {
          "indexed": false,
          "internalType": "uint256",
          "name": "amount",
          "type": "uint256"
        }
      ],
      "name": "PaymentCreated",
      "type": "event"
    },
    {
      "anonymous": false,
      "inputs": [
        {
          "indexed": false,
          "internalType": "uint256",
          "name": "cropId",
          "type": "uint256"
        }
      ],
      "name": "PaymentReleased",
      "type": "event"
    },
    {
      "inputs": [
        {
          "internalType": "string",
          "name": "_name",
          "type": "string"
        },
        {
          "internalType": "uint256",
          "name": "_quantity",
          "type": "uint256"
        },
        {
          "internalType": "uint256",
          "name": "_price",
          "type": "uint256"
        }
      ],
      "name": "addCrop",
      "outputs": [],
      "stateMutability": "nonpayable",
      "type": "function"
    },
    {
      "inputs": [
        {
          "internalType": "uint256",
          "name": "_cropId",
          "type": "uint256"
        },
        {
          "internalType": "address",
          "name": "_seller",
          "type": "address"
        }
      ],
      "name": "createPayment",
      "outputs": [],
      "stateMutability": "payable",
      "type": "function"
    },
    {
      "inputs": [],
      "name": "cropCount",
      "outputs": [
        {
          "internalType": "uint256",
          "name": "",
          "type": "uint256"
        }
      ],
      "stateMutability": "view",
      "type": "function"
    },
    {
      "inputs": [
        {
          "internalType": "uint256",
          "name": "",
          "type": "uint256"
        }
      ],
      "name": "crops",
      "outputs": [
        {
          "internalType": "uint256",
          "name": "id",
          "type": "uint256"
        },
        {
          "internalType": "string",
          "name": "name",
          "type": "string"
        },
        {
          "internalType": "uint256",
          "name": "quantity",
          "type": "uint256"
        },
        {
          "internalType": "uint256",
          "name": "price",
          "type": "uint256"
        },
        {
          "internalType": "address",
          "name": "farmer",
          "type": "address"
        },
        {
          "internalType": "address",
          "name": "currentOwner",
          "type": "address"
        },
        {
          "internalType": "uint256",
          "name": "timestamp",
          "type": "uint256"
        }
      ],
      "stateMutability": "view",
      "type": "function"
    },
    {
      "inputs": [
        {
          "internalType": "uint256",
          "name": "_cropId",
          "type": "uint256"
        }
      ],
      "name": "getHistory",
      "outputs": [
        {
          "components": [
            {
              "internalType": "address",
              "name": "from",
              "type": "address"
            },
            {
              "internalType": "address",
              "name": "to",
              "type": "address"
            },
            {
              "internalType": "uint256",
              "name": "timestamp",
              "type": "uint256"
            }
          ],
          "internalType": "struct AgriChain.Transfer[]",
          "name": "",
          "type": "tuple[]"
        }
      ],
      "stateMutability": "view",
      "type": "function"
    },
    {
      "inputs": [
        {
          "internalType": "uint256",
          "name": "",
          "type": "uint256"
        },
        {
          "internalType": "uint256",
          "name": "",
          "type": "uint256"
        }
      ],
      "name": "history",
      "outputs": [
        {
          "internalType": "address",
          "name": "from",
          "type": "address"
        },
        {
          "internalType": "address",
          "name": "to",
          "type": "address"
        },
        {
          "internalType": "uint256",
          "name": "timestamp",
          "type": "uint256"
        }
      ],
      "stateMutability": "view",
      "type": "function"
    },
    {
      "inputs": [
        {
          "internalType": "uint256",
          "name": "",
          "type": "uint256"
        }
      ],
      "name": "payments",
      "outputs": [
        {
          "internalType": "address",
          "name": "buyer",
          "type": "address"
        },
        {
          "internalType": "address",
          "name": "seller",
          "type": "address"
        },
        {
          "internalType": "uint256",
          "name": "amount",
          "type": "uint256"
        },
        {
          "internalType": "bool",
          "name": "released",
          "type": "bool"
        }
      ],
      "stateMutability": "view",
      "type": "function"
    },
    {
      "inputs": [
        {
          "internalType": "uint256",
          "name": "_cropId",
          "type": "uint256"
        }
      ],
      "name": "releasePayment",
      "outputs": [],
      "stateMutability": "nonpayable",
      "type": "function"
    },
    {
      "inputs": [
        {
          "internalType": "uint256",
          "name": "_cropId",
          "type": "uint256"
        },
        {
          "internalType": "address",
          "name": "_to",
          "type": "address"
        }
      ],
      "name": "transferOwnership",
      "outputs": [],
      "stateMutability": "nonpayable",
      "type": "function"
    }
  ],
  "bytecode": "0x60806040526000805534801561001457600080fd5b506117b5806100246000396000f3fe6080604052600436106100865760003560e01c806387d817891161005957806387d817891461015f57806388685cd91461019f578063b31ebbe1146101c8578063c8691b2a146101e4578063dfd55a2c1461022157610086565b806329507f731461008b5780636c662918146100b457806370c9f1a5146100dd57806371d9e19e14610120575b600080fd5b34801561009757600080fd5b506100b260048036038101906100ad9190610cf0565b61024c565b005b3480156100c057600080fd5b506100db60048036038101906100d69190610e76565b6104a1565b005b3480156100e957600080fd5b5061010460048036038101906100ff9190610ee5565b61063e565b6040516101179796959493929190610faf565b60405180910390f35b34801561012c57600080fd5b5061014760048036038101906101429190611025565b610748565b60405161015693929190611065565b60405180910390f35b34801561016b57600080fd5b5061018660048036038101906101819190610ee5565b6107cf565b60405161019694939291906110b7565b60405180910390f35b3480156101ab57600080fd5b506101c660048036038101906101c19190610ee5565b61084c565b005b6101e260048036038101906101dd9190610cf0565b61097c565b005b3480156101f057600080fd5b5061020b60048036038101906102069190610ee5565b610b1a565b604051610218919061120b565b60405180910390f35b34801561022d57600080fd5b50610236610c42565b604051610243919061122d565b60405180910390f35b3373ffffffffffffffffffffffffffffffffffffffff166001600084815260200190815260200160002060050160009054906101000a900473ffffffffffffffffffffffffffffffffffffffff1673ffffffffffffffffffffffffffffffffffffffff16146102f0576040517f08c379a00000000000000000000000000000000000000000000000000000000081526004016102e790611294565b60405180910390fd5b6002600083815260200190815260200160002060405180606001604052803373ffffffffffffffffffffffffffffffffffffffff1681526020018373ffffffffffffffffffffffffffffffffffffffff16815260200142815250908060018154018082558091505060019003906000526020600020906003020160009091909190915060008201518160000160006101000a81548173ffffffffffffffffffffffffffffffffffffffff021916908373ffffffffffffffffffffffffffffffffffffffff16021790555060208201518160010160006101000a81548173ffffffffffffffffffffffffffffffffffffffff021916908373ffffffffffffffffffffffffffffffffffffffff160217905550604082015181600201555050806001600084815260200190815260200160002060050160006101000a81548173ffffffffffffffffffffffffffffffffffffffff021916908373ffffffffffffffffffffffffffffffffffffffff1602179055507f16b85f49bf01212961345d3016c9a531894accf62eb7680f2045d79185cc0ec0823383604051610495939291906112b4565b60405180910390a15050565b6000808154809291906104b39061131a565b91905055506040518060e0016040528060005481526020018481526020018381526020018281526020013373ffffffffffffffffffffffffffffffffffffffff1681526020013373ffffffffffffffffffffffffffffffffffffffff16815260200142815250600160008054815260200190815260200160002060008201518160000155602082015181600101908161054c919061156e565b50604082015181600201556060820151816003015560808201518160040160006101000a81548173ffffffffffffffffffffffffffffffffffffffff021916908373ffffffffffffffffffffffffffffffffffffffff16021790555060a08201518160050160006101000a81548173ffffffffffffffffffffffffffffffffffffffff021916908373ffffffffffffffffffffffffffffffffffffffff16021790555060c082015181600601559050507fed1df0b07aee55cd0afdd632e23543ee3365e991d832ffa539d886820072290e600054843360405161063193929190611640565b60405180910390a1505050565b600160205280600052604060002060009150905080600001549080600101805461066790611391565b80601f016020809104026020016040519081016040528092919081815260200182805461069390611391565b80156106e05780601f106106b5576101008083540402835291602001916106e0565b820191906000526020600020905b8154815290600101906020018083116106c357829003601f168201915b5050505050908060020154908060030154908060040160009054906101000a900473ffffffffffffffffffffffffffffffffffffffff16908060050160009054906101000a900473ffffffffffffffffffffffffffffffffffffffff16908060060154905087565b6002602052816000526040600020818154811061076457600080fd5b9060005260206000209060030201600091509150508060000160009054906101000a900473ffffffffffffffffffffffffffffffffffffffff16908060010160009054906101000a900473ffffffffffffffffffffffffffffffffffffffff16908060020154905083565b60036020528060005260406000206000915090508060000160009054906101000a900473ffffffffffffffffffffffffffffffffffffffff16908060010160009054906101000a900473ffffffffffffffffffffffffffffffffffffffff16908060020154908060030160009054906101000a900460ff16905084565b60006003600083815260200190815260200160002090508060030160009054906101000a900460ff16156108b5576040517f08c379a00000000000000000000000000000000000000000000000000000000081526004016108ac906116ca565b60405180910390fd5b8060010160009054906101000a900473ffffffffffffffffffffffffffffffffffffffff1673ffffffffffffffffffffffffffffffffffffffff166108fc82600201549081150290604051600060405180830381858888f19350505050158015610923573d6000803e3d6000fd5b5060018160030160006101000a81548160ff0219169083151502179055507f7094d01aa39ef767229e67850ef530b588b0dc1576b827e94f51a1f06300743482604051610970919061122d565b60405180910390a15050565b600034116109bf576040517f08c379a00000000000000000000000000000000000000000000000000000000081526004016109b690611736565b60405180910390fd5b60405180608001604052803373ffffffffffffffffffffffffffffffffffffffff1681526020018273ffffffffffffffffffffffffffffffffffffffff168152602001348152602001600015158152506003600084815260200190815260200160002060008201518160000160006101000a81548173ffffffffffffffffffffffffffffffffffffffff021916908373ffffffffffffffffffffffffffffffffffffffff16021790555060208201518160010160006101000a81548173ffffffffffffffffffffffffffffffffffffffff021916908373ffffffffffffffffffffffffffffffffffffffff1602179055506040820151816002015560608201518160030160006101000a81548160ff0219169083151502179055509050507f0e65f36a6834d0eacdafce32b7aa7351be7c62fde1e6d957367be128c850d2d28234604051610b0e929190611756565b60405180910390a15050565b606060026000838152602001908152602001600020805480602002602001604051908101604052809291908181526020016000905b82821015610c3757838290600052602060002090600302016040518060600160405290816000820160009054906101000a900473ffffffffffffffffffffffffffffffffffffffff1673ffffffffffffffffffffffffffffffffffffffff1673ffffffffffffffffffffffffffffffffffffffff1681526020016001820160009054906101000a900473ffffffffffffffffffffffffffffffffffffffff1673ffffffffffffffffffffffffffffffffffffffff1673ffffffffffffffffffffffffffffffffffffffff16815260200160028201548152505081526020019060010190610b4f565b505050509050919050565b60005481565b6000604051905090565b600080fd5b600080fd5b6000819050919050565b610c6f81610c5c565b8114610c7a57600080fd5b50565b600081359050610c8c81610c66565b92915050565b600073ffffffffffffffffffffffffffffffffffffffff82169050919050565b6000610cbd82610c92565b9050919050565b610ccd81610cb2565b8114610cd857600080fd5b50565b600081359050610cea81610cc4565b92915050565b60008060408385031215610d0757610d06610c52565b5b6000610d1585828601610c7d565b9250506020610d2685828601610cdb565b9150509250929050565b600080fd5b600080fd5b6000601f19601f8301169050919050565b7f4e487b7100000000000000000000000000000000000000000000000000000000600052604160045260246000fd5b610d8382610d3a565b810181811067ffffffffffffffff82111715610da257610da1610d4b565b5b80604052505050565b6000610db5610c48565b9050610dc18282610d7a565b919050565b600067ffffffffffffffff821115610de157610de0610d4b565b5b610dea82610d3a565b9050602081019050919050565b82818337600083830152505050565b6000610e19610e1484610dc6565b610dab565b905082815260208101848484011115610e3557610e34610d35565b5b610e40848285610df7565b509392505050565b600082601f830112610e5d57610e5c610d30565b5b8135610e6d848260208601610e06565b91505092915050565b600080600060608486031215610e8f57610e8e610c52565b5b600084013567ffffffffffffffff811115610ead57610eac610c57565b5b610eb986828701610e48565b9350506020610eca86828701610c7d565b9250506040610edb86828701610c7d565b9150509250925092565b600060208284031215610efb57610efa610c52565b5b6000610f0984828501610c7d565b91505092915050565b610f1b81610c5c565b82525050565b600081519050919050565b600082825260208201905092915050565b60005b83811015610f5b578082015181840152602081019050610f40565b60008484015250505050565b6000610f7282610f21565b610f7c8185610f2c565b9350610f8c818560208601610f3d565b610f9581610d3a565b840191505092915050565b610fa981610cb2565b82525050565b600060e082019050610fc4600083018a610f12565b8181036020830152610fd68189610f67565b9050610fe56040830188610f12565b610ff26060830187610f12565b610fff6080830186610fa0565b61100c60a0830185610fa0565b61101960c0830184610f12565b98975050505050505050565b6000806040838503121561103c5761103b610c52565b5b600061104a85828601610c7d565b925050602061105b85828601610c7d565b9150509250929050565b600060608201905061107a6000830186610fa0565b6110876020830185610fa0565b6110946040830184610f12565b949350505050565b60008115159050919050565b6110b18161109c565b82525050565b60006080820190506110cc6000830187610fa0565b6110d96020830186610fa0565b6110e66040830185610f12565b6110f360608301846110a8565b95945050505050565b600081519050919050565b600082825260208201905092915050565b6000819050602082019050919050565b61113181610cb2565b82525050565b61114081610c5c565b82525050565b60608201600082015161115c6000850182611128565b50602082015161116f6020850182611128565b5060408201516111826040850182611137565b50505050565b60006111948383611146565b60608301905092915050565b6000602082019050919050565b60006111b8826110fc565b6111c28185611107565b93506111cd83611118565b8060005b838110156111fe5781516111e58882611188565b97506111f0836111a0565b9250506001810190506111d1565b5085935050505092915050565b6000602082019050818103600083015261122581846111ad565b905092915050565b60006020820190506112426000830184610f12565b92915050565b7f4e6f74206f776e65720000000000000000000000000000000000000000000000600082015250565b600061127e600983610f2c565b915061128982611248565b602082019050919050565b600060208201905081810360008301526112ad81611271565b9050919050565b60006060820190506112c96000830186610f12565b6112d66020830185610fa0565b6112e36040830184610fa0565b949350505050565b7f4e487b7100000000000000000000000000000000000000000000000000000000600052601160045260246000fd5b600061132582610c5c565b91507fffffffffffffffffffffffffffffffffffffffffffffffffffffffffffffffff8203611357576113566112eb565b5b600182019050919050565b7f4e487b7100000000000000000000000000000000000000000000000000000000600052602260045260246000fd5b600060028204905060018216806113a957607f821691505b6020821081036113bc576113bb611362565b5b50919050565b60008190508160005260206000209050919050565b60006020601f8301049050919050565b600082821b905092915050565b6000600883026114247fffffffffffffffffffffffffffffffffffffffffffffffffffffffffffffffff826113e7565b61142e86836113e7565b95508019841693508086168417925050509392505050565b6000819050919050565b600061146b61146661146184610c5c565b611446565b610c5c565b9050919050565b6000819050919050565b61148583611450565b61149961149182611472565b8484546113f4565b825550505050565b600090565b6114ae6114a1565b6114b981848461147c565b505050565b5b818110156114dd576114d26000826114a6565b6001810190506114bf565b5050565b601f821115611522576114f3816113c2565b6114fc846113d7565b8101602085101561150b578190505b61151f611517856113d7565b8301826114be565b50505b505050565b600082821c905092915050565b600061154560001984600802611527565b1980831691505092915050565b600061155e8383611534565b9150826002028217905092915050565b61157782610f21565b67ffffffffffffffff8111156115905761158f610d4b565b5b61159a8254611391565b6115a58282856114e1565b600060209050601f8311600181146115d857600084156115c6578287015190505b6115d08582611552565b865550611638565b601f1984166115e6866113c2565b60005b8281101561160e578489015182556001820191506020850194506020810190506115e9565b8683101561162b5784890151611627601f891682611534565b8355505b6001600288020188555050505b505050505050565b60006060820190506116556000830186610f12565b81810360208301526116678185610f67565b90506116766040830184610fa0565b949350505050565b7f416c72656164792072656c656173656400000000000000000000000000000000600082015250565b60006116b4601083610f2c565b91506116bf8261167e565b602082019050919050565b600060208201905081810360008301526116e3816116a7565b9050919050565b7f4e6f204554482073656e74000000000000000000000000000000000000000000600082015250565b6000611720600b83610f2c565b915061172b826116ea565b602082019050919050565b6000602082019050818103600083015261174f81611713565b9050919050565b600060408201905061176b6000830185610f12565b6117786020830184610f12565b939250505056fea2646970667358221220b16197a387f166fc7d58a5679cafacfd845327549d5ea3a68e01a20cea68408264736f6c63430008140033",
  "linkReferences": {},
  "deployedLinkReferences": {}
}