{"contracts/SupplyChain.sol":{"SupplyChain":{"abi":[{"anonymous":false,"inputs":[{"indexed":false,"internalType":"uint256","name":"id","type":"uint256"},{"indexed":false,"internalType":"string","name":"name","type":"string"},{"indexed":false,"internalType":"uint256","name":"quantity","type":"uint256"},{"indexed":false,"internalType":"uint256","name":"price","type":"uint256"},{"indexed":false,"internalType":"address","name":"farmer","type":"address"}],"name":"CropAdded","type":"event"},{"inputs":[{"internalType":"string","name":"_name","type":"string"},{"internalType":"uint256","name":"_quantity","type":"uint256"},{"internalType":"uint256","name":"_price","type":"uint256"}],"name":"addCrop","outputs":[],"stateMutability":"nonpayable","type":"function"},{"inputs":[],"name":"cropCount","outputs":[{"internalType":"uint256","name":"","type":"uint256"}],"stateMutability":"view","type":"function"},{"inputs":[{"internalType":"uint256","name":"","type":"uint256"}],"name":"crops","outputs":[{"internalType":"uint256","name":"id","type":"uint256"},{"internalType":"string","name":"name","type":"string"},{"internalType":"uint256","name":"quantity","type":"uint256"},{"internalType":"uint256","name":"price","type":"uint256"},{"internalType":"address","name":"farmer","type":"address"},{"internalType":"uint256","name":"timestamp","type":"uint256"}],"stateMutability":"view","type":"function"}],"evm":{"bytecode":{"linkReferences":{},"object":"60806040526000805534801561001457600080fd5b50610a40806100246000396000f3fe608060405234801561001057600080fd5b50600436106100415760003560e01c80636c6629181461004657806370c9f1a514610062578063dfd55a2c14610097575b600080fd5b610060600480360381019061005b919061046d565b6100b5565b005b61007c600480360381019061007791906104dc565b6101f3565b60405161008e969594939291906105d8565b60405180910390f35b61009f6102d7565b6040516100ac9190610640565b60405180910390f35b6000808154809291906100c79061068a565b91905055506040518060c0016040528060005481526020018481526020018381526020018281526020013373ffffffffffffffffffffffffffffffffffffffff16815260200142815250600160008054815260200190815260200160002060008201518160000155602082015181600101908161014491906108de565b50604082015181600201556060820151816003015560808201518160040160006101000a81548173ffffffffffffffffffffffffffffffffffffffff021916908373ffffffffffffffffffffffffffffffffffffffff16021790555060a082015181600501559050507fe6341eaa1353a3c8acb70db256dd487ab58db683c127c1d26fb553684b8509e6600054848484336040516101e69594939291906109b0565b60405180910390a1505050565b600160205280600052604060002060009150905080600001549080600101805461021c90610701565b80601f016020809104026020016040519081016040528092919081815260200182805461024890610701565b80156102955780601f1061026a57610100808354040283529160200191610295565b820191906000526020600020905b81548152906001019060200180831161027857829003601f168201915b5050505050908060020154908060030154908060040160009054906101000a900473ffffffffffffffffffffffffffffffffffffffff16908060050154905086565b60005481565b6000604051905090565b600080fd5b600080fd5b600080fd5b600080fd5b6000601f19601f8301169050919050565b7f4e487b7100000000000000000000000000000000000000000000000000000000600052604160045260246000fd5b610344826102fb565b810181811067ffffffffffffffff821117156103635761036261030c565b5b80604052505050565b60006103766102dd565b9050610382828261033b565b919050565b600067ffffffffffffffff8211156103a2576103a161030c565b5b6103ab826102fb565b9050602081019050919050565b82818337600083830152505050565b60006103da6103d584610387565b61036c565b9050828152602081018484840111156103f6576103f56102f6565b5b6104018482856103b8565b509392505050565b600082601f83011261041e5761041d6102f1565b5b813561042e8482602086016103c7565b91505092915050565b6000819050919050565b61044a81610437565b811461045557600080fd5b50565b60008135905061046781610441565b92915050565b600080600060608486031215610486576104856102e7565b5b600084013567ffffffffffffffff8111156104a4576104a36102ec565b5b6104b086828701610409565b93505060206104c186828701610458565b92505060406104d286828701610458565b9150509250925092565b6000602082840312156104f2576104f16102e7565b5b600061050084828501610458565b91505092915050565b61051281610437565b82525050565b600081519050919050565b600082825260208201905092915050565b60005b83811015610552578082015181840152602081019050610537565b60008484015250505050565b600061056982610518565b6105738185610523565b9350610583818560208601610534565b61058c816102fb565b840191505092915050565b600073ffffffffffffffffffffffffffffffffffffffff82169050919050565b60006105c282610597565b9050919050565b6105d2816105b7565b82525050565b600060c0820190506105ed6000830189610509565b81810360208301526105ff818861055e565b905061060e6040830187610509565b61061b6060830186610509565b61062860808301856105c9565b61063560a0830184610509565b979650505050505050565b60006020820190506106556000830184610509565b92915050565b7f4e487b7100000000000000000000000000000000000000000000000000000000600052601160045260246000fd5b600061069582610437565b91507fffffffffffffffffffffffffffffffffffffffffffffffffffffffffffffffff82036106c7576106c661065b565b5b600182019050919050565b7f4e487b7100000000000000000000000000000000000000000000000000000000600052602260045260246000fd5b6000600282049050600182168061071957607f821691505b60208210810361072c5761072b6106d2565b5b50919050565b60008190508160005260206000209050919050565b60006020601f8301049050919050565b600082821b905092915050565b6000600883026107947fffffffffffffffffffffffffffffffffffffffffffffffffffffffffffffffff82610757565b61079e8683610757565b95508019841693508086168417925050509392505050565b6000819050919050565b60006107db6107d66107d184610437565b6107b6565b610437565b9050919050565b6000819050919050565b6107f5836107c0565b610809610801826107e2565b848454610764565b825550505050565b600090565b61081e610811565b6108298184846107ec565b505050565b5b8181101561084d57610842600082610816565b60018101905061082f565b5050565b601f8211156108925761086381610732565b61086c84610747565b8101602085101561087b578190505b61088f61088785610747565b83018261082e565b50505b505050565b600082821c905092915050565b60006108b560001984600802610897565b1980831691505092915050565b60006108ce83836108a4565b9150826002028217905092915050565b6108e782610518565b67ffffffffffffffff811115610900576108ff61030c565b5b61090a8254610701565b610915828285610851565b600060209050601f8311600181146109485760008415610936578287015190505b61094085826108c2565b8655506109a8565b601f19841661095686610732565b60005b8281101561097e57848901518255600182019150602085019450602081019050610959565b8683101561099b5784890151610997601f8916826108a4565b8355505b6001600288020188555050505b505050505050565b600060a0820190506109c56000830188610509565b81810360208301526109d7818761055e565b90506109e66040830186610509565b6109f36060830185610509565b610a0060808301846105c9565b969550505050505056fea2646970667358221220d1a77b1f4e7ae3dbc314dc618a602f3448004da15f50668245a2781d2524839d64736f6c63430008140033","opcodes":"PUSH1 0x80 PUSH1 0x40 MSTORE PUSH1 0x0 DUP1 SSTORE CALLVALUE DUP1 ISZERO PUSH2 0x14 JUMPI PUSH1 0x0 DUP1 REVERT JUMPDEST POP PUSH2 0xA40 DUP1 PUSH2 0x24 PUSH1 0x0 CODECOPY PUSH1 0x0 RETURN INVALID PUSH1 0x80 PUSH1 0x40 MSTORE CALLVALUE DUP1 ISZERO PUSH2 0x10 JUMPI PUSH1 0x0 DUP1 REVERT JUMPDEST POP PUSH1 0x4 CALLDATASIZE LT PUSH2 0x41 JUMPI PUSH1 0x0 CALLDATALOAD PUSH1 0xE0 SHR DUP1 PUSH4 0x6C662918 EQ PUSH2 0x46 JUMPI DUP1 PUSH4 0x70C9F1A5 EQ PUSH2 0x62 JUMPI DUP1 PUSH4 0xDFD55A2C EQ PUSH2 0x97 JUMPI JUMPDEST PUSH1 0x0 DUP1 REVERT JUMPDEST PUSH2 0x60 PUSH1 0x4 DUP1 CALLDATASIZE SUB DUP2 ADD SWAP1 PUSH2 0x5B SWAP2 SWAP1 PUSH2 0x46D JUMP JUMPDEST PUSH2 0xB5 JUMP JUMPDEST STOP JUMPDEST PUSH2 0x7C PUSH1 0x4 DUP1 CALLDATASIZE SUB DUP2 ADD SWAP1 PUSH2 0x77 SWAP2 SWAP1 PUSH2 0x4DC JUMP JUMPDEST PUSH2 0x1F3 JUMP JUMPDEST PUSH1 0x40 MLOAD PUSH2 0x8E SWAP7 SWAP6 SWAP5 SWAP4 SWAP3 SWAP2 SWAP1 PUSH2 0x5D8 JUMP JUMPDEST PUSH1 0x40 MLOAD DUP1 SWAP2 SUB SWAP1 RETURN JUMPDEST PUSH2 0x9F PUSH2 0x2D7 JUMP JUMPDEST PUSH1 0x40 MLOAD PUSH2 0xAC SWAP2 SWAP1 PUSH2 0x640 JUMP JUMPDEST PUSH1 0x40 MLOAD DUP1 SWAP2 SUB SWAP1 RETURN JUMPDEST PUSH1 0x0 DUP1 DUP2 SLOAD DUP1 SWAP3 SWAP2 SWAP1 PUSH2 0xC7 SWAP1 PUSH2 0x68A JUMP JUMPDEST SWAP2 SWAP1 POP SSTORE POP PUSH1 0x40 MLOAD DUP1 PUSH1 0xC0 ADD PUSH1 0x40 MSTORE DUP1 PUSH1 0x0 SLOAD DUP2 MSTORE PUSH1 0x20 ADD DUP5 DUP2 MSTORE PUSH1 0x20 ADD DUP4 DUP2 MSTORE PUSH1 0x20 ADD DUP3 DUP2 MSTORE PUSH1 0x20 ADD CALLER PUSH20 0xFFFFFFFFFFFFFFFFFFFFFFFFFFFFFFFFFFFFFFFF AND DUP2 MSTORE PUSH1 0x20 ADD TIMESTAMP DUP2 MSTORE POP PUSH1 0x1 PUSH1 0x0 DUP1 SLOAD DUP2 MSTORE PUSH1 0x20 ADD SWAP1 DUP2 MSTORE PUSH1 0x20 ADD PUSH1 0x0 KECCAK256 PUSH1 0x0 DUP3 ADD MLOAD DUP2 PUSH1 0x0 ADD SSTORE PUSH1 0x20 DUP3 ADD MLOAD DUP2 PUSH1 0x1 ADD SWAP1 DUP2 PUSH2 0x144 SWAP2 SWAP1 PUSH2 0x8DE JUMP JUMPDEST POP PUSH1 0x40 DUP3 ADD MLOAD DUP2 PUSH1 0x2 ADD SSTORE PUSH1 0x60 DUP3 ADD MLOAD DUP2 PUSH1 0x3 ADD SSTORE PUSH1 0x80 DUP3 ADD MLOAD DUP2 PUSH1 0x4 ADD PUSH1 0x0 PUSH2 0x100 EXP DUP2 SLOAD DUP2 PUSH20 0xFFFFFFFFFFFFFFFFFFFFFFFFFFFFFFFFFFFFFFFF MUL NOT AND SWAP1 DUP4 PUSH20 0xFFFFFFFFFFFFFFFFFFFFFFFFFFFFFFFFFFFFFFFF AND MUL OR SWAP1 SSTORE POP PUSH1 0xA0 DUP3 ADD MLOAD DUP2 PUSH1 0x5 ADD SSTORE SWAP1 POP POP PUSH32 0xE6341EAA1353A3C8ACB70DB256DD487AB58DB683C127C1D26FB553684B8509E6 PUSH1 0x0 SLOAD DUP5 DUP5 DUP5 CALLER PUSH1 0x40 MLOAD PUSH2 0x1E6 SWAP6 SWAP5 SWAP4 SWAP3 SWAP2 SWAP1 PUSH2 0x9B0 JUMP JUMPDEST PUSH1 0x40 MLOAD DUP1 SWAP2 SUB SWAP1 LOG1 POP POP POP JUMP JUMPDEST PUSH1 0x1 PUSH1 0x20 MSTORE DUP1 PUSH1 0x0 MSTORE PUSH1 0x40 PUSH1 0x0 KECCAK256 PUSH1 0x0 SWAP2 POP SWAP1 POP DUP1 PUSH1 0x0 ADD SLOAD SWAP1 DUP1 PUSH1 0x1 ADD DUP1 SLOAD PUSH2 0x21C SWAP1 PUSH2 0x701 JUMP JUMPDEST DUP1 PUSH1 0x1F ADD PUSH1 0x20 DUP1 SWAP2 DIV MUL PUSH1 0x20 ADD PUSH1 0x40 MLOAD SWAP1 DUP2 ADD PUSH1 0x40 MSTORE DUP1 SWAP3 SWAP2 SWAP1 DUP2 DUP2 MSTORE PUSH1 0x20 ADD DUP3 DUP1 SLOAD PUSH2 0x248 SWAP1 PUSH2 0x701 JUMP JUMPDEST DUP1 ISZERO PUSH2 0x295 JUMPI DUP1 PUSH1 0x1F LT PUSH2 0x26A JUMPI PUSH2 0x100 DUP1 DUP4 SLOAD DIV MUL DUP4 MSTORE SWAP2 PUSH1 0x20 ADD SWAP2 PUSH2 0x295 JUMP JUMPDEST DUP3 ADD SWAP2 SWAP1 PUSH1 0x0 MSTORE PUSH1 0x20 PUSH1 0x0 KECCAK256 SWAP1 JUMPDEST DUP2 SLOAD DUP2 MSTORE SWAP1 PUSH1 0x1 ADD SWAP1 PUSH1 0x20 ADD DUP1 DUP4 GT PUSH2 0x278 JUMPI DUP3 SWAP1 SUB PUSH1 0x1F AND DUP3 ADD SWAP2 JUMPDEST POP POP POP POP POP SWAP1 DUP1 PUSH1 0x2 ADD SLOAD SWAP1 DUP1 PUSH1 0x3 ADD SLOAD SWAP1 DUP1 PUSH1 0x4 ADD PUSH1 0x0 SWAP1 SLOAD SWAP1 PUSH2 0x100 EXP SWAP1 DIV PUSH20 0xFFFFFFFFFFFFFFFFFFFFFFFFFFFFFFFFFFFFFFFF AND SWAP1 DUP1 PUSH1 0x5 ADD SLOAD SWAP1 POP DUP7 JUMP JUMPDEST PUSH1 0x0 SLOAD DUP2 JUMP JUMPDEST PUSH1 0x0 PUSH1 0x40 MLOAD SWAP1 POP SWAP1 JUMP JUMPDEST PUSH1 0x0 DUP1 REVERT JUMPDEST PUSH1 0x0 DUP1 REVERT JUMPDEST PUSH1 0x0 DUP1 REVERT JUMPDEST PUSH1 0x0 DUP1 REVERT JUMPDEST PUSH1 0x0 PUSH1 0x1F NOT PUSH1 0x1F DUP4 ADD AND SWAP1 POP SWAP2 SWAP1 POP JUMP JUMPDEST PUSH32 0x4E487B7100000000000000000000000000000000000000000000000000000000 PUSH1 0x0 MSTORE PUSH1 0x41 PUSH1 0x4 MSTORE PUSH1 0x24 PUSH1 0x0 REVERT JUMPDEST PUSH2 0x344 DUP3 PUSH2 0x2FB JUMP JUMPDEST DUP2 ADD DUP2 DUP2 LT PUSH8 0xFFFFFFFFFFFFFFFF DUP3 GT OR ISZERO PUSH2 0x363 JUMPI PUSH2 0x362 PUSH2 0x30C JUMP JUMPDEST JUMPDEST DUP1 PUSH1 0x40 MSTORE POP POP POP JUMP JUMPDEST PUSH1 0x0 PUSH2 0x376 PUSH2 0x2DD JUMP JUMPDEST SWAP1 POP PUSH2 0x382 DUP3 DUP3 PUSH2 0x33B JUMP JUMPDEST SWAP2 SWAP1 POP JUMP JUMPDEST PUSH1 0x0 PUSH8 0xFFFFFFFFFFFFFFFF DUP3 GT ISZERO PUSH2 0x3A2 JUMPI PUSH2 0x3A1 PUSH2 0x30C JUMP JUMPDEST JUMPDEST PUSH2 0x3AB DUP3 PUSH2 0x2FB JUMP JUMPDEST SWAP1 POP PUSH1 0x20 DUP2 ADD SWAP1 POP SWAP2 SWAP1 POP JUMP JUMPDEST DUP3 DUP2 DUP4 CALLDATACOPY PUSH1 0x0 DUP4 DUP4 ADD MSTORE POP POP POP JUMP JUMPDEST PUSH1 0x0 PUSH2 0x3DA PUSH2 0x3D5 DUP5 PUSH2 0x387 JUMP JUMPDEST PUSH2 0x36C JUMP JUMPDEST SWAP1 POP DUP3 DUP2 MSTORE PUSH1 0x20 DUP2 ADD DUP5 DUP5 DUP5 ADD GT ISZERO PUSH2 0x3F6 JUMPI PUSH2 0x3F5 PUSH2 0x2F6 JUMP JUMPDEST JUMPDEST PUSH2 0x401 DUP5 DUP3 DUP6 PUSH2 0x3B8 JUMP JUMPDEST POP SWAP4 SWAP3 POP POP POP JUMP JUMPDEST PUSH1 0x0 DUP3 PUSH1 0x1F DUP4 ADD SLT PUSH2 0x41E JUMPI PUSH2 0x41D PUSH2 0x2F1 JUMP JUMPDEST JUMPDEST DUP2 CALLDATALOAD PUSH2 0x42E DUP5 DUP3 PUSH1 0x20 DUP7 ADD PUSH2 0x3C7 JUMP JUMPDEST SWAP2 POP POP SWAP3 SWAP2 POP POP JUMP JUMPDEST PUSH1 0x0 DUP2 SWAP1 POP SWAP2 SWAP1 POP JUMP JUMPDEST PUSH2 0x44A DUP2 PUSH2 0x437 JUMP JUMPDEST DUP2 EQ PUSH2 0x455 JUMPI PUSH1 0x0 DUP1 REVERT JUMPDEST POP JUMP JUMPDEST PUSH1 0x0 DUP2 CALLDATALOAD SWAP1 POP PUSH2 0x467 DUP2 PUSH2 0x441 JUMP JUMPDEST SWAP3 SWAP2 POP POP JUMP JUMPDEST PUSH1 0x0 DUP1 PUSH1 0x0 PUSH1 0x60 DUP5 DUP7 SUB SLT ISZERO PUSH2 0x486 JUMPI PUSH2 0x485 PUSH2 0x2E7 JUMP JUMPDEST JUMPDEST PUSH1 0x0 DUP5 ADD CALLDATALOAD PUSH8 0xFFFFFFFFFFFFFFFF DUP2 GT ISZERO PUSH2 0x4A4 JUMPI PUSH2 0x4A3 PUSH2 0x2EC JUMP JUMPDEST JUMPDEST PUSH2 0x4B0 DUP7 DUP3 DUP8 ADD PUSH2 0x409 JUMP JUMPDEST SWAP4 POP POP PUSH1 0x20 PUSH2 0x4C1 DUP7 DUP3 DUP8 ADD PUSH2 0x458 JUMP JUMPDEST SWAP3 POP POP PUSH1 0x40 PUSH2 0x4D2 DUP7 DUP3 DUP8 ADD PUSH2 0x458 JUMP JUMPDEST SWAP2 POP POP SWAP3 POP SWAP3 POP SWAP3 JUMP JUMPDEST PUSH1 0x0 PUSH1 0x20 DUP3 DUP5 SUB SLT ISZERO PUSH2 0x4F2 JUMPI PUSH2 0x4F1 PUSH2 0x2E7 JUMP JUMPDEST JUMPDEST PUSH1 0x0 PUSH2 0x500 DUP5 DUP3 DUP6 ADD PUSH2 0x458 JUMP JUMPDEST SWAP2 POP POP SWAP3 SWAP2 POP POP JUMP JUMPDEST PUSH2 0x512 DUP2 PUSH2 0x437 JUMP JUMPDEST DUP3 MSTORE POP POP JUMP JUMPDEST PUSH1 0x0 DUP2 MLOAD SWAP1 POP SWAP2 SWAP1 POP JUMP JUMPDEST PUSH1 0x0 DUP3 DUP3 MSTORE PUSH1 0x20 DUP3 ADD SWAP1 POP SWAP3 SWAP2 POP POP JUMP JUMPDEST PUSH1 0x0 JUMPDEST DUP4 DUP2 LT ISZERO PUSH2 0x552 JUMPI DUP1 DUP3 ADD MLOAD DUP2 DUP5 ADD MSTORE PUSH1 0x20 DUP2 ADD SWAP1 POP PUSH2 0x537 JUMP JUMPDEST PUSH1 0x0 DUP5 DUP5 ADD MSTORE POP POP POP POP JUMP JUMPDEST PUSH1 0x0 PUSH2 0x569 DUP3 PUSH2 0x518 JUMP JUMPDEST PUSH2 0x573 DUP2 DUP6 PUSH2 0x523 JUMP JUMPDEST SWAP4 POP PUSH2 0x583 DUP2 DUP6 PUSH1 0x20 DUP7 ADD PUSH2 0x534 JUMP JUMPDEST PUSH2 0x58C DUP2 PUSH2 0x2FB JUMP JUMPDEST DUP5 ADD SWAP2 POP POP SWAP3 SWAP2 POP POP JUMP JUMPDEST PUSH1 0x0 PUSH20 0xFFFFFFFFFFFFFFFFFFFFFFFFFFFFFFFFFFFFFFFF DUP3 AND SWAP1 POP SWAP2 SWAP1 POP JUMP JUMPDEST PUSH1 0x0 PUSH2 0x5C2 DUP3 PUSH2 0x597 JUMP JUMPDEST SWAP1 POP SWAP2 SWAP1 POP JUMP JUMPDEST PUSH2 0x5D2 DUP2 PUSH2 0x5B7 JUMP JUMPDEST DUP3 MSTORE POP POP JUMP JUMPDEST PUSH1 0x0 PUSH1 0xC0 DUP3 ADD SWAP1 POP PUSH2 0x5ED PUSH1 0x0 DUP4 ADD DUP10 PUSH2 0x509 JUMP JUMPDEST DUP2 DUP2 SUB PUSH1 0x20 DUP4 ADD MSTORE PUSH2 0x5FF DUP2 DUP9 PUSH2 0x55E JUMP JUMPDEST SWAP1 POP PUSH2 0x60E PUSH1 0x40 DUP4 ADD DUP8 PUSH2 0x509 JUMP JUMPDEST PUSH2 0x61B PUSH1 0x60 DUP4 ADD DUP7 PUSH2 0x509 JUMP JUMPDEST PUSH2 0x628 PUSH1 0x80 DUP4 ADD DUP6 PUSH2 0x5C9 JUMP JUMPDEST PUSH2 0x635 PUSH1 0xA0 DUP4 ADD DUP5 PUSH2 0x509 JUMP JUMPDEST SWAP8 SWAP7 POP POP POP POP POP POP POP JUMP JUMPDEST PUSH1 0x0 PUSH1 0x20 DUP3 ADD SWAP1 POP PUSH2 0x655 PUSH1 0x0 DUP4 ADD DUP5 PUSH2 0x509 JUMP JUMPDEST SWAP3 SWAP2 POP POP JUMP JUMPDEST PUSH32 0x4E487B7100000000000000000000000000000000000000000000000000000000 PUSH1 0x0 MSTORE PUSH1 0x11 PUSH1 0x4 MSTORE PUSH1 0x24 PUSH1 0x0 REVERT JUMPDEST PUSH1 0x0 PUSH2 0x695 DUP3 PUSH2 0x437 JUMP JUMPDEST SWAP2 POP PUSH32 0xFFFFFFFFFFFFFFFFFFFFFFFFFFFFFFFFFFFFFFFFFFFFFFFFFFFFFFFFFFFFFFFF DUP3 SUB PUSH2 0x6C7 JUMPI PUSH2 0x6C6 PUSH2 0x65B JUMP JUMPDEST JUMPDEST PUSH1 0x1 DUP3 ADD SWAP1 POP SWAP2 SWAP1 POP JUMP JUMPDEST PUSH32 0x4E487B7100000000000000000000000000000000000000000000000000000000 PUSH1 0x0 MSTORE PUSH1 0x22 PUSH1 0x4 MSTORE PUSH1 0x24 PUSH1 0x0 REVERT JUMPDEST PUSH1 0x0 PUSH1 0x2 DUP3 DIV SWAP1 POP PUSH1 0x1 DUP3 AND DUP1 PUSH2 0x719 JUMPI PUSH1 0x7F DUP3 AND SWAP2 POP JUMPDEST PUSH1 0x20 DUP3 LT DUP2 SUB PUSH2 0x72C JUMPI PUSH2 0x72B PUSH2 0x6D2 JUMP JUMPDEST JUMPDEST POP SWAP2 SWAP1 POP JUMP JUMPDEST PUSH1 0x0 DUP2 SWAP1 POP DUP2 PUSH1 0x0 MSTORE PUSH1 0x20 PUSH1 0x0 KECCAK256 SWAP1 POP SWAP2 SWAP1 POP JUMP JUMPDEST PUSH1 0x0 PUSH1 0x20 PUSH1 0x1F DUP4 ADD DIV SWAP1 POP SWAP2 SWAP1 POP JUMP JUMPDEST PUSH1 0x0 DUP3 DUP3 SHL SWAP1 POP SWAP3 SWAP2 POP POP JUMP JUMPDEST PUSH1 0x0 PUSH1 0x8 DUP4 MUL PUSH2 0x794 PUSH32 0xFFFFFFFFFFFFFFFFFFFFFFFFFFFFFFFFFFFFFFFFFFFFFFFFFFFFFFFFFFFFFFFF DUP3 PUSH2 0x757 JUMP JUMPDEST PUSH2 0x79E DUP7 DUP4 PUSH2 0x757 JUMP JUMPDEST SWAP6 POP DUP1 NOT DUP5 AND SWAP4 POP DUP1 DUP7 AND DUP5 OR SWAP3 POP POP POP SWAP4 SWAP3 POP POP POP JUMP JUMPDEST PUSH1 0x0 DUP2 SWAP1 POP SWAP2 SWAP1 POP JUMP JUMPDEST PUSH1 0x0 PUSH2 0x7DB PUSH2 0x7D6 PUSH2 0x7D1 DUP5 PUSH2 0x437 JUMP JUMPDEST PUSH2 0x7B6 JUMP JUMPDEST PUSH2 0x437 JUMP JUMPDEST SWAP1 POP SWAP2 SWAP1 POP JUMP JUMPDEST PUSH1 0x0 DUP2 SWAP1 POP SWAP2 SWAP1 POP JUMP JUMPDEST PUSH2 0x7F5 DUP4 PUSH2 0x7C0 JUMP JUMPDEST PUSH2 0x809 PUSH2 0x801 DUP3 PUSH2 0x7E2 JUMP JUMPDEST DUP5 DUP5 SLOAD PUSH2 0x764 JUMP JUMPDEST DUP3 SSTORE POP POP POP POP JUMP JUMPDEST PUSH1 0x0 SWAP1 JUMP JUMPDEST PUSH2 0x81E PUSH2 0x811 JUMP JUMPDEST PUSH2 0x829 DUP2 DUP5 DUP5 PUSH2 0x7EC JUMP JUMPDEST POP POP POP JUMP JUMPDEST JUMPDEST DUP2 DUP2 LT ISZERO PUSH2 0x84D JUMPI PUSH2 0x842 PUSH1 0x0 DUP3 PUSH2 0x816 JUMP JUMPDEST PUSH1 0x1 DUP2 ADD SWAP1 POP PUSH2 0x82F JUMP JUMPDEST POP POP JUMP JUMPDEST PUSH1 0x1F DUP3 GT ISZERO PUSH2 0x892 JUMPI PUSH2 0x863 DUP2 PUSH2 0x732 JUMP JUMPDEST PUSH2 0x86C DUP5 PUSH2 0x747 JUMP JUMPDEST DUP2 ADD PUSH1 0x20 DUP6 LT ISZERO PUSH2 0x87B JUMPI DUP2 SWAP1 POP JUMPDEST PUSH2 0x88F PUSH2 0x887 DUP6 PUSH2 0x747 JUMP JUMPDEST DUP4 ADD DUP3 PUSH2 0x82E JUMP JUMPDEST POP POP JUMPDEST POP POP POP JUMP JUMPDEST PUSH1 0x0 DUP3 DUP3 SHR SWAP1 POP SWAP3 SWAP2 POP POP JUMP JUMPDEST PUSH1 0x0 PUSH2 0x8B5 PUSH1 0x0 NOT DUP5 PUSH1 0x8 MUL PUSH2 0x897 JUMP JUMPDEST NOT DUP1 DUP4 AND SWAP2 POP POP SWAP3 SWAP2 POP POP JUMP JUMPDEST PUSH1 0x0 PUSH2 0x8CE DUP4 DUP4 PUSH2 0x8A4 JUMP JUMPDEST SWAP2 POP DUP3 PUSH1 0x2 MUL DUP3 OR SWAP1 POP SWAP3 SWAP2 POP POP JUMP JUMPDEST PUSH2 0x8E7 DUP3 PUSH2 0x518 JUMP JUMPDEST PUSH8 0xFFFFFFFFFFFFFFFF DUP2 GT ISZERO PUSH2 0x900 JUMPI PUSH2 0x8FF PUSH2 0x30C JUMP JUMPDEST JUMPDEST PUSH2 0x90A DUP3 SLOAD PUSH2 0x701 JUMP JUMPDEST PUSH2 0x915 DUP3 DUP3 DUP6 PUSH2 0x851 JUMP JUMPDEST PUSH1 0x0 PUSH1 0x20 SWAP1 POP PUSH1 0x1F DUP4 GT PUSH1 0x1 DUP2 EQ PUSH2 0x948 JUMPI PUSH1 0x0 DUP5 ISZERO PUSH2 0x936 JUMPI DUP3 DUP8 ADD MLOAD SWAP1 POP JUMPDEST PUSH2 0x940 DUP6 DUP3 PUSH2 0x8C2 JUMP JUMPDEST DUP7 SSTORE POP PUSH2 0x9A8 JUMP JUMPDEST PUSH1 0x1F NOT DUP5 AND PUSH2 0x956 DUP7 PUSH2 0x732 JUMP JUMPDEST PUSH1 0x0 JUMPDEST DUP3 DUP2 LT ISZERO PUSH2 0x97E JUMPI DUP5 DUP10 ADD MLOAD DUP3 SSTORE PUSH1 0x1 DUP3 ADD SWAP2 POP PUSH1 0x20 DUP6 ADD SWAP5 POP PUSH1 0x20 DUP2 ADD SWAP1 POP PUSH2 0x959 JUMP JUMPDEST DUP7 DUP4 LT ISZERO PUSH2 0x99B JUMPI DUP5 DUP10 ADD MLOAD PUSH2 0x997 PUSH1 0x1F DUP10 AND DUP3 PUSH2 0x8A4 JUMP JUMPDEST DUP4 SSTORE POP JUMPDEST PUSH1 0x1 PUSH1 0x2 DUP9 MUL ADD DUP9 SSTORE POP POP POP JUMPDEST POP POP POP POP POP POP JUMP JUMPDEST PUSH1 0x0 PUSH1 0xA0 DUP3 ADD SWAP1 POP PUSH2 0x9C5 PUSH1 0x0 DUP4 ADD DUP9 PUSH2 0x509 JUMP JUMPDEST DUP2 DUP2 SUB PUSH1 0x20 DUP4 ADD MSTORE PUSH2 0x9D7 DUP2 DUP8 PUSH2 0x55E JUMP JUMPDEST SWAP1 POP PUSH2 0x9E6 PUSH1 0x40 DUP4 ADD DUP7 PUSH2 0x509 JUMP JUMPDEST PUSH2 0x9F3 PUSH1 0x60 DUP4 ADD DUP6 PUSH2 0x509 JUMP JUMPDEST PUSH2 0xA00 PUSH1 0x80 DUP4 ADD DUP5 PUSH2 0x5C9 JUMP JUMPDEST SWAP7 SWAP6 POP POP POP POP POP POP JUMP INVALID LOG2 PUSH5 0x6970667358 0x22 SLT KECCAK256 0xD1 0xA7 PUSH28 0x1F4E7AE3DBC314DC618A602F3448004DA15F50668245A2781D252483 SWAP14 PUSH5 0x736F6C6343 STOP ADDMOD EQ STOP CALLER "},"methodIdentifiers":{"addCrop(string,uint256,uint256)":"6c662918","cropCount()":"dfd55a2c","crops(uint256)":"70c9f1a5"}}}}}