{
  "_format": "hh-sol-artifact-1",
  "contractName": "SupplyChain",
  "sourceName": "contracts/SupplyChain.sol",
  "abi": [
    {
      "anonymous": false,
      "inputs": [
        {
          "indexed": false,
          "internalType": "uint256",
          "name": "id",
          "type": "uint256"
        },
        {
          "indexed": false,
          "internalType": "string",
          "name": "name",
          "type": "string"
        },
        {
          "indexed": false,
          "internalType": "uint256",
          "name": "quantity",
          "type": "uint256"
        },
        {
          "indexed": false,
          "internalType": "uint256",
          "name": "price",
          "type": "uint256"
        },
        {
          "indexed": false,
          "internalType": "address",
          "name": "farmer",
          "type": "address"
        }
      ],
      "name": "CropAdded",
      "type": "event"
    },
    {
      "inputs": [
        {
          "internalType": "string",
          "name": "_name",
          "type": "string"
        },
        {
          "internalType": "uint256",
          "name": "_quantity",
          "type": "uint256"
        },
        {
          "internalType": "uint256",
          "name": "_price",
          "type": "uint256"
        }
      ],
      "name": "addCrop",
      "outputs": [],
      "stateMutability": "nonpayable",
      "type": "function"
    },
    {
      "inputs": [],
      "name": "cropCount",
      "outputs": [
        {
          "internalType": "uint256",
          "name": "",
          "type": "uint256"
        }
      ],
      "stateMutability": "view",
      "type": "function"
    },
    {
      "inputs": [
        {
          "internalType": "uint256",
          "name": "",
          "type": "uint256"
        }
      ],
      "name": "crops",
      "outputs": [
        {
          "internalType": "uint256",
          "name": "id",
          "type": "uint256"
        },
        {
          "internalType": "string",
          "name": "name",
          "type": "string"
        },
        {
          "internalType": "uint256",
          "name": "quantity",
          "type": "uint256"
        },
        {
          "internalType": "uint256",
          "name": "price",
          "type": "uint256"
        },
        {
          "internalType": "address",
          "name": "farmer",
          "type": "address"
        },
        {
          "internalType": "uint256",
          "name": "timestamp",
          "type": "uint256"
        }
      ],
      "stateMutability": "view",
      "type": "function"
    }
  ],
  "bytecode": "0x60806040526000805534801561001457600080fd5b50610a40806100246000396000f3fe608060405234801561001057600080fd5b50600436106100415760003560e01c80636c6629181461004657806370c9f1a514610062578063dfd55a2c14610097575b600080fd5b610060600480360381019061005b919061046d565b6100b5565b005b61007c600480360381019061007791906104dc565b6101f3565b60405161008e969594939291906105d8565b60405180910390f35b61009f6102d7565b6040516100ac9190610640565b60405180910390f35b6000808154809291906100c79061068a565b91905055506040518060c0016040528060005481526020018481526020018381526020018281526020013373ffffffffffffffffffffffffffffffffffffffff16815260200142815250600160008054815260200190815260200160002060008201518160000155602082015181600101908161014491906108de565b50604082015181600201556060820151816003015560808201518160040160006101000a81548173ffffffffffffffffffffffffffffffffffffffff021916908373ffffffffffffffffffffffffffffffffffffffff16021790555060a082015181600501559050507fe6341eaa1353a3c8acb70db256dd487ab58db683c127c1d26fb553684b8509e6600054848484336040516101e69594939291906109b0565b60405180910390a1505050565b600160205280600052604060002060009150905080600001549080600101805461021c90610701565b80601f016020809104026020016040519081016040528092919081815260200182805461024890610701565b80156102955780601f1061026a57610100808354040283529160200191610295565b820191906000526020600020905b81548152906001019060200180831161027857829003601f168201915b5050505050908060020154908060030154908060040160009054906101000a900473ffffffffffffffffffffffffffffffffffffffff16908060050154905086565b60005481565b6000604051905090565b600080fd5b600080fd5b600080fd5b600080fd5b6000601f19601f8301169050919050565b7f4e487b7100000000000000000000000000000000000000000000000000000000600052604160045260246000fd5b610344826102fb565b810181811067ffffffffffffffff821117156103635761036261030c565b5b80604052505050565b60006103766102dd565b9050610382828261033b565b919050565b600067ffffffffffffffff8211156103a2576103a161030c565b5b6103ab826102fb565b9050602081019050919050565b82818337600083830152505050565b60006103da6103d584610387565b61036c565b9050828152602081018484840111156103f6576103f56102f6565b5b6104018482856103b8565b509392505050565b600082601f83011261041e5761041d6102f1565b5b813561042e8482602086016103c7565b91505092915050565b6000819050919050565b61044a81610437565b811461045557600080fd5b50565b60008135905061046781610441565b92915050565b600080600060608486031215610486576104856102e7565b5b600084013567ffffffffffffffff8111156104a4576104a36102ec565b5b6104b086828701610409565b93505060206104c186828701610458565b92505060406104d286828701610458565b9150509250925092565b6000602082840312156104f2576104f16102e7565b5b600061050084828501610458565b91505092915050565b61051281610437565b82525050565b600081519050919050565b600082825260208201905092915050565b60005b83811015610552578082015181840152602081019050610537565b60008484015250505050565b600061056982610518565b6105738185610523565b9350610583818560208601610534565b61058c816102fb565b840191505092915050565b600073ffffffffffffffffffffffffffffffffffffffff82169050919050565b60006105c282610597565b9050919050565b6105d2816105b7565b82525050565b600060c0820190506105ed6000830189610509565b81810360208301526105ff818861055e565b905061060e6040830187610509565b61061b6060830186610509565b61062860808301856105c9565b61063560a0830184610509565b979650505050505050565b60006020820190506106556000830184610509565b92915050565b7f4e487b7100000000000000000000000000000000000000000000000000000000600052601160045260246000fd5b600061069582610437565b91507fffffffffffffffffffffffffffffffffffffffffffffffffffffffffffffffff82036106c7576106c661065b565b5b600182019050919050565b7f4e487b7100000000000000000000000000000000000000000000000000000000600052602260045260246000fd5b6000600282049050600182168061071957607f821691505b60208210810361072c5761072b6106d2565b5b50919050565b60008190508160005260206000209050919050565b60006020601f8301049050919050565b600082821b905092915050565b6000600883026107947fffffffffffffffffffffffffffffffffffffffffffffffffffffffffffffffff82610757565b61079e8683610757565b95508019841693508086168417925050509392505050565b6000819050919050565b60006107db6107d66107d184610437565b6107b6565b610437565b9050919050565b6000819050919050565b6107f5836107c0565b610809610801826107e2565b848454610764565b825550505050565b600090565b61081e610811565b6108298184846107ec565b505050565b5b8181101561084d57610842600082610816565b60018101905061082f565b5050565b601f8211156108925761086381610732565b61086c84610747565b8101602085101561087b578190505b61088f61088785610747565b83018261082e565b50505b505050565b600082821c905092915050565b60006108b560001984600802610897565b1980831691505092915050565b60006108ce83836108a4565b9150826002028217905092915050565b6108e782610518565b67ffffffffffffffff811115610900576108ff61030c565b5b61090a8254610701565b610915828285610851565b600060209050601f8311600181146109485760008415610936578287015190505b61094085826108c2565b8655506109a8565b601f19841661095686610732565b60005b8281101561097e57848901518255600182019150602085019450602081019050610959565b8683101561099b5784890151610997601f8916826108a4565b8355505b6001600288020188555050505b505050505050565b600060a0820190506109c56000830188610509565b81810360208301526109d7818761055e565b90506109e66040830186610509565b6109f36060830185610509565b610a0060808301846105c9565b969550505050505056fea2646970667358221220d1a77b1f4e7ae3dbc314dc618a602f3448004da15f50668245a2781d2524839d64736f6c63430008140033",
  "linkReferences": {},
  "deployedLinkReferences": {}
}